:1000000019C033C032C031C030C02FC0CBC42DC0E6
:100010002CC02BC02AC058C428C027C026C025C069
:1000200024C023C067C221C020C01FC01EC01DC085
:100030001CC01BC011241FBECFEFD4E0DEBFCDBF5C
:1000400011E0A0E0B1E0E4E2FCE002C005900D9216
:10005000A630B107D9F711E0A6E0B1E001C01D92CA
:10006000A334B107E1F776D2DBC5CACFFC0192E039
:1000700020E007C080819827803109F498272F5FFE
:1000800031962617B8F383E18927089580910A01F4
:1000900090910901890F90910B01890F90910C01AA
:1000A000890F90910D01890F08959F92AF92BF9291
:1000B000CF92DF92EF92FF920F931F93DF93CF9334
:1000C00000D00F92CDB7DEB76C0110E09924939465
:1000D0005E010894A11CB11C8091C1008F778093B0
:1000E000C10090920E01C50161E070E043E050E074
:1000F00090D5113011F40FD402C08091C600823027
:1001000009F055C080E1FFD3FF2410E082E0E82E23
:1001100080E197E2C1D3FFD3082FCAD390910E019B
:10012000913041F5E02680E1F81619F00031A9F48C
:100130000DC0003179F48A81813041F489831A82BB
:100140008B83F601E10FF11DF0820EC019829A83B4
:100150009B830BC09A831B8203C099839A839B83E2
:10016000F601E10FF11D00831F5FF02E89818823C6
:1001700079F603C085E1C7D304C0F02E8B818823B4
:1001800039F680910E01813091F4033081F480E1E1
:1001900097E282D3C0D3182F8BD380910E01813088
:1001A00031F41E1521F480E1AED391E003C085E166
:1001B000AAD390E080910E0111E0882309F48CCF3E
:1001C000992309F489CF8091C10080688093C10090
:1001D0000F900F900F90CF91DF911F910F91FF9093
:1001E000EF90DF90CF90BF90AF909F900895CF9207
:1001F000DF92EF92FF920F931F93CF93DF937C01D7
:10020000062F85E0E9E0F1E0DF011D928A95E9F72C
:10021000C7012CDFD82ECC24C394C0920E01C0920B
:10022000080182E070D380E197E236D374D3182FAF
:100230003FD380910E01813009F077C0103109F071
:100240006AC08091C10080688093C100E70110E01E
:1002500011C080910801813079F4888154D388815C
:10026000803131F480910801813031F480E14BD349
:100270001F5F2196101768F380910801813079F58E
:1002800080E141D380910801813049F583E03BD37F
:1002900080910801813019F58091C1008F7780939A
:1002A000C1008D2D30D3809108018130E9F480E1C7
:1002B00097E2F2D230D3182FFBD280910E01813019
:1002C00041F41031B1F080910A018F5F80930A01EF
:1002D00010C080910B018F5F80930B010AC0809149
:1002E000C1008F778093C10080910C018F5F809354
:1002F0000C0180910A0190910901890F90910B01E5
:10030000890F90910C01890F90910D01890F863012
:1003100091F481E01BC0123011F482E017C080918B
:1003200009018F5F80930901E4CF80910D018F5FF8
:1003300080930D01DECF80910E01882309F46DCFEB
:1003400080910801882309F468CF80E0DF91CF9184
:100350001F910F91FF90EF90DF90CF90089587E667
:1003600090E0BED28BD285E0E9E0F1E0DF011D92A2
:100370008A95E9F708951092B90080E28093B80059
:100380000895982F84EA8093BC008091BC0087FF79
:10039000FCCF8091B900887F883021F0803111F046
:1003A00081E008959093BB0084E88093BC00809125
:1003B000BC0087FFFCCF9091B900987F983111F471
:1003C00080E0089580E0903409F081E00895982F4E
:1003D00044EA34E824E94093BC008091BC0087FFE4
:1003E000FCCF8091B900887F883011F0803199F777
:1003F0009093BB003093BC008091BC0087FFFCCF82
:100400008091B900887F803211F0883539F42093CB
:10041000BC008091BC0084FDFCCFDDCF0895B1DF2E
:10042000089584E98093BC008091BC0084FDFCCFDA
:1004300008958093BB0084E88093BC008091BC0049
:1004400087FFFCCF8091B90090E0887F883209F067
:1004500091E0892F089584EC8093BC008091BC00CA
:1004600087FFFCCF8091BB00089584E88093BC0097
:100470008091BC0087FFFCCF8091BB0008950F9353
:100480001F9380931501409316016093170101ECAF
:1004900010E0F80180818F7780831092280185E138
:1004A00091E063E0A4DE80931A0181E0809328014B
:1004B000F8018081806880831F910F910895F894DE
:1004C000519A589A10922F011092300110923101D6
:1004D00010923201109233014EDF41DFE1ECF0E087
:1004E00080818068808381E08093280151D2DFD2AF
:1004F000789408951F920F920FB60F9211242F93A4
:100500003F934F935F936F937F938F939F93AF939B
:10051000BF93EF93FF9380912801882319F41092E1
:10052000080107C0813029F48FE291E0BEDD10920E
:100530003301FF91EF91BF91AF919F918F917F9187
:100540006F915F914F913F912F910F900FBE0F9040
:100550001F9018951F93B3DF80E952D282E950D2E1
:1005600084E94ED286E94CD288E94AD28AE948D257
:100570008CE946D28EE944D280E8F4D211E0809131
:100580002F01882309F478C1823509F42FC18335FE
:1005900040F5843409F4C0C0853480F4813409F412
:1005A00082C0823420F4803409F053C169C082349F
:1005B00009F48CC0833409F04CC19BC0873409F422
:1005C000E4C0883438F4853409F4B9C0863409F0BD
:1005D00040C1C8C0803509F4EBC0813509F039C18C
:1005E000F6C0803809F440C0813870F48036F1F0EC
:1005F000813620F4833509F02CC107C18037E1F042
:10060000813709F026C12AC0813909F412C1823923
:1006100030F4813879F1803909F01BC105C1823984
:1006200009F40CC1833909F014C10DC180E6609151
:1006300026014091290110C080E86FE071E0A5D249
:100640008FE091E077D2482F80931F0180933B0188
:100650001092170180E760E012DFFCC081E7609133
:10066000190140914201F8CF80E860913801409132
:100670001401F2CF81E86091220140913701ECCF63
:1006800080E96FE071E0CFD18FE091E060E271E04E
:10069000EAD14091200140931201609121016093C1
:1006A0003F0180E4D9CF82E96FE071E0BCD18FE0F7
:1006B00091E060E271E0D7D14091200140931D01AB
:1006C000609121016093400181E4C6CF84E96FE02D
:1006D00071E0A9D18FE091E060E271E0C4D1409176
:1006E000200140933E01609121016093410182E429
:1006F000B3CF86E96FE071E096D18FE091E060E2E0
:1007000071E0B1D14091200140933C016091210101
:1007100060933A0183E4A0CF88E96FE071E083D170
:100720008FE091E060E271E09ED140912001409322
:100730002101609121016093340184E48DCF8AE925
:100740006FE071E070D18FE091E060E271E08BD1F9
:1007500040912001409318016091210160932D0187
:1007600085E47ACF8CE96FE071E05DD18FE091E0B4
:1007700060E271E078D14091200140931B016091CB
:10078000210160931C0186E467CF8EE96FE071E080
:100790004AD18FE091E060E271E065D140912001A3
:1007A00040931E01609121016093250187E454CF9D
:1007B00080E0A2D18FE091E093D160910F0160932E
:1007C0001301409110014093350180E545CF81E050
:1007D00093D18FE091E084D160910F016093230168
:1007E0004091100140932E0181E536CF82E084D103
:1007F0008FE091E075D160910F0160932A014091E3
:1008000010014093270182E527CF83E075D18FE067
:1008100091E066D160910F0160933D01409110011C
:1008200040932C0183E518CF1093010180E960EA21
:100830000EC01092010181E961EA09C01093020122
:1008400082E962EA04C01092020183E963EA40E0AF
:1008500003CF000010922B0190E007C0E92FF0E0D9
:10086000E15DFE4F818180839F5F9530B8F3909367
:100870002B011092330183CE000081CEE1E8F0E03D
:10088000808188608083EFE6F0E0808182608083F1
:1008900081E080930E010895F894909389008093ED
:1008A00088007894E1E8F0E0808185608083089595
:1008B000E1E8F0E080818D7F8083F89410928500DC
:1008C00010928400789408951F920F920FB60F92A1
:1008D000112410920E010F900FBE0F901F901895CB
:1008E0009093C5008093C40082E08093C000E1EC47
:1008F000F0E080818861808386E08093C20081E09F
:10090000809308010895982F8091C00085FFFCCF47
:100910009093C60008958091C00087FD04C0809127
:100920000E018130C1F38091C00087FD02C080E0DC
:1009300008958091C60008950F931F93CF93DF937E
:10094000062FEC0110E003C0E6DF89931F5F10174C
:10095000D8F3DF91CF911F910F9108959C01DC0195
:100960000D900020E9F71197A81BB90B90E00AC081
:10097000E20FF31F40818091C00085FFFCCF4093C0
:10098000C6009F5FE92FF0E0EA17FB0788F30895A0
:10099000F894A895E0E6F0E088E1808381E6808322
:1009A000789408951F920F920FB60F9211248F938F
:1009B0009F93F8948091030190910401892B89F011
:1009C000A89588E18093600081E680936000809123
:1009D0000301909104010197909304018093030116
:1009E00007C0A89588E18093600088E0809360004C
:1009F00078949F918F910F900FBE0F901F90189534
:100A00001F93BFDC182F882311F00BDD09C081E094
:100A100010DD80E20EDD05DD80E395E70197F1F75B
:100A2000812F1F9108950F931F93CF93DF93182F5A
:100A3000EB01A7DC082FF5DC002369F4812FC7DC6C
:100A400080E0F7DC812F8F5FEADC05DD88830DDD38
:100A50008983E7DC02C018821982802FDF91CF9151
:100A60001F910F910895FC01DB01408147FD03C0F8
:100A700020E030E003C0419520E830E0818190E043
:100A8000807C90708038910549F0803C910549F058
:100A90008034910541F4275E3F4F05C02E5C3F4FE7
:100AA00002C0255B3F4F4C9311962C930895ECE7C1
:100AB000F0E0808180628083EAE7F0E080818068F6
:100AC0008083EEE7F0E080818F6080830895EAE71D
:100AD000F0E080818061808380818F7B80830895B6
:100AE000FC0180917A0084FFFCCF809178008083A4
:100AF0008091790081830895882311F480E203C0F6
:100B0000813021F481E280937C0009C0823011F4AD
:100B100082E2F9CF833011F483E2F5CF00008091B7
:100B20007A00806480937A00809164008E7F809345
:100B300064000895FC01708160E0882777FD80954E
:100B4000982F2181620F711D811D911D2DE730E0CD
:100B500040E050E03FD0DC01CB01CD01AA27BB270C
:100B6000865008951F930DDC182F882311F059DC4F
:100B700009C086EE5EDC83E05CDC53DC80E395E755
:100B80000197F1F7812F1F9108950F931F93CF9332
:100B9000DF93182FEB01F5DB082F43DC002399F4DA
:100BA000812F15DC83EE45DC812F8F5F38DC80E1FF
:100BB00097E20197F1F74FDC88834DDC898355DCA0
:100BC0008A832FDC01C01882802FDF91CF911F9183
:100BD0000F910895629FD001739FF001829FE00DF5
:100BE000F11D649FE00DF11D929FF00D839FF00DAC
:100BF000749FF00D659FF00D9927729FB00DE11D58
:100C0000F91F639FB00DE11DF91FBD01CF01112434
:100C10000895DC0101C06D9341505040E0F7089504
:040C2000F894FFCF76
:060C2400010101060000C1
:00000001FF
