:1000000019C033C032C031C030C02FC0C8C42DC0E9
:100010002CC02BC02AC055C428C027C026C025C06C
:1000200024C023C067C221C020C01FC01EC01DC085
:100030001CC01BC011241FBECFEFD4E0DEBFCDBF5C
:1000400011E0A0E0B1E0E0E4FBE002C005900D9219
:10005000A630B107D9F711E0A6E0B1E001C01D92CA
:10006000A534B107E1F776D269C5CACFFC0192E0A9
:1000700020E007C080819827803109F498272F5FFE
:1000800031962617B8F383E18927089580910A01F4
:1000900090910901890F90910B01890F90910C01AA
:1000A000890F90910D01890F08959F92AF92BF9291
:1000B000CF92DF92EF92FF920F931F93DF93CF9334
:1000C00000D00F92CDB7DEB76C0110E09924939465
:1000D0005E010894A11CB11C8091C1008F778093B0
:1000E000C10090920E01C50161E070E043E050E074
:1000F0001ED5113011F40CD402C08091C60082309C
:1001000009F055C080E1FCD3FF2410E082E0E82E26
:1001100080E197E2BED3FCD3082FC7D390910E01A4
:10012000913041F5E02680E1F81619F00031A9F48C
:100130000DC0003179F48A81813041F489831A82BB
:100140008B83F601E10FF11DF0820EC019829A83B4
:100150009B830BC09A831B8203C099839A839B83E2
:10016000F601E10FF11D00831F5FF02E89818823C6
:1001700079F603C085E1C4D304C0F02E8B818823B7
:1001800039F680910E01813091F4033081F480E1E1
:1001900097E27FD3BDD3182F88D380910E01813091
:1001A00031F41E1521F480E1ABD391E003C085E169
:1001B000A7D390E080910E0111E0882309F48CCF41
:1001C000992309F489CF8091C10080688093C10090
:1001D0000F900F900F90CF91DF911F910F91FF9093
:1001E000EF90DF90CF90BF90AF909F900895CF9207
:1001F000DF92EF92FF920F931F93CF93DF937C01D7
:10020000062F85E0E9E0F1E0DF011D928A95E9F72C
:10021000C7012CDFD82ECC24C394C0920E01C0920B
:10022000080182E06DD380E197E233D371D3182FB8
:100230003CD380910E01813009F077C0103109F074
:100240006AC08091C10080688093C100E70110E01E
:1002500011C080910801813079F4888151D388815F
:10026000803131F480910801813031F480E148D34C
:100270001F5F2196101768F380910801813079F58E
:1002800080E13ED380910801813049F583E038D385
:1002900080910801813019F58091C1008F7780939A
:1002A000C1008D2D2DD3809108018130E9F480E1CA
:1002B00097E2EFD22DD3182FF8D280910E01813022
:1002C00041F41031B1F080910A018F5F80930A01EF
:1002D00010C080910B018F5F80930B010AC0809149
:1002E000C1008F778093C10080910C018F5F809354
:1002F0000C0180910A0190910901890F90910B01E5
:10030000890F90910C01890F90910D01890F863012
:1003100091F481E01BC0123011F482E017C080918B
:1003200009018F5F80930901E4CF80910D018F5FF8
:1003300080930D01DECF80910E01882309F46DCFEB
:1003400080910801882309F468CF80E0DF91CF9184
:100350001F910F91FF90EF90DF90CF90089587E667
:1003600090E0BBD288D285E0E9E0F1E0DF011D92A8
:100370008A95E9F708951092B90080E28093B80059
:100380000895982F84EA8093BC008091BC0087FF79
:10039000FCCF8091B900887F883021F0803111F046
:1003A00081E008959093BB0084E88093BC00809125
:1003B000BC0087FFFCCF9091B900987F983111F471
:1003C00080E0089580E0903409F081E00895982F4E
:1003D00044EA34E824E94093BC008091BC0087FFE4
:1003E000FCCF8091B900887F883011F0803199F777
:1003F0009093BB003093BC008091BC0087FFFCCF82
:100400008091B900887F803211F0883539F42093CB
:10041000BC008091BC0084FDFCCFDDCF0895B1DF2E
:10042000089584E98093BC008091BC0084FDFCCFDA
:1004300008958093BB0084E88093BC008091BC0049
:1004400087FFFCCF8091B90090E0887F883209F067
:1004500091E0892F089584EC8093BC008091BC00CA
:1004600087FFFCCF8091BB00089584E88093BC0097
:100470008091BC0087FFFCCF8091BB0008950F9353
:100480001F93809318014093190160931A0101ECA6
:1004900010E0F80180818F77808310922A0188E133
:1004A00091E063E0A4DE80931D0181E080932A0146
:1004B000F8018081806880831F910F910895F894DE
:1004C000519A589A109231011092320110923301D0
:1004D00010923401109235014EDF41DFE1ECF0E083
:1004E00080818068808381E080932A014ED2DCD2B3
:1004F000789408951F920F920FB60F9211242F93A4
:100500003F934F935F936F937F938F939F93AF939B
:10051000BF93EF93FF9380912A01882319F41092DF
:10052000080107C0813029F481E391E0BEDD10921B
:100530003501FF91EF91BF91AF919F918F917F9185
:100540006F915F914F913F912F910F900FBE0F9040
:100550001F9018951F93B3DF80E94FD282E94DD2E7
:1005600084E94BD286E949D288E947D28AE945D263
:100570008CE943D28EE941D211E080913101882388
:1005800009F477C1823509F428C1833540F58434F4
:1005900009F4B4C0853480F4813409F476C082341F
:1005A00020F4803409F052C15DC0823409F480C067
:1005B000833409F04BC18FC0873409F4D8C0883424
:1005C00038F4853409F4ADC0863409F03FC1BCC0AD
:1005D000803509F4DFC0813509F038C1ECC08038BE
:1005E000A9F1813870F48036F1F0813620F483353A
:1005F00009F02CC103C18037E1F0813709F026C131
:100600001FC0813909F412C1823930F4813821F1D7
:10061000803909F01BC105C1823909F40CC1833945
:1006200009F014C10DC180E66091280140912B01B1
:1006300005C080E760911A0140913D0120DF07C1AC
:1006400081E760911C0140914401F8CF80E86091FE
:100650003A0140911701F2CF81E860912401409165
:100660003901ECCF80E96FE071E0DAD18FE091E001
:1006700062E271E0F5D14091220140931501609151
:1006800023016093410180E4D9CF84E96FE071E0F8
:10069000C7D18FE091E062E271E0E2D140912201A6
:1006A00040932001609123016093420181E4C6CF11
:1006B00084E96FE071E0B4D18FE091E062E271E033
:1006C000CFD140912201409340016091230160937A
:1006D000430182E4B3CF86E96FE071E0A1D18FE0FE
:1006E00091E062E271E0BCD14091220140933E0171
:1006F0006091230160933C0183E4A0CF88E96FE01F
:1007000071E08ED18FE091E062E271E0A9D1409179
:10071000220140932301609123016093360184E418
:100720008DCF8AE96FE071E07BD18FE091E062E2EA
:1007300071E096D14091220140931B016091230109
:1007400060932F0185E47ACF8CE96FE071E068D186
:100750008FE091E062E271E083D140912201409309
:100760001E016091230160931F0186E467CF8EE92B
:100770006FE071E055D18FE091E062E271E070D1FD
:100780004091220140932101609123016093270150
:1007900087E454CF80E0ADD18FE091E09ED16091AD
:1007A0000F0160931601409110014093370180E5DD
:1007B00066DE5A9810C081E09CD18FE091E08DD127
:1007C00060910F0160932501409110014093300129
:1007D00081E555DE5A9A5B9822C082E08AD18FE08B
:1007E00091E07BD160910F0160932C014091100149
:1007F0004093290182E543DE5A9810C083E079D105
:100800008FE091E06AD160910F0160933F014091C8
:10081000100140932E0183E532DE5A9A5B9A5C9A6E
:1008200016C01093010180E960EA0EC01092010128
:1008300081E961EA09C01093020182E962EA04C019
:100840001092020183E963EA40E0F8CE00001092C2
:100850002D0190E007C0E92FF0E0EF5CFE4F8181B1
:1008600080839F5F9530B8F390932D0110923501EE
:1008700084CE000082CEE1E8F0E080818860808351
:10088000EFE6F0E080818260808381E080930E015A
:100890000895F89490938900809388007894E1E813
:1008A000F0E08081856080830895E1E8F0E0808158
:1008B0008D7F8083F8941092850010928400789444
:1008C00008951F920F920FB60F92112410920E01ED
:1008D0000F900FBE0F901F9018959093C5008093B6
:1008E000C40082E08093C000E1ECF0E08081886188
:1008F000808386E08093C20081E0809308010895A0
:10090000982F8091C00085FFFCCF9093C60008957A
:100910008091C00087FD04C080910E018130C1F339
:100920008091C00087FD02C080E008958091C600DC
:1009300008950F931F93CF93DF93062FEC0110E0E0
:1009400003C0E6DF89931F5F1017D8F3DF91CF91C3
:100950001F910F9108959C01DC010D900020E9F793
:100960001197A81BB90B90E00AC0E20FF31F40815A
:100970008091C00085FFFCCF4093C6009F5FE92FA8
:10098000F0E0EA17FB0788F30895F894A895E0E6ED
:10099000F0E088E1808381E68083789408951F9257
:1009A0000F920FB60F9211248F939F93F89480911A
:1009B000030190910401892B89F0A89588E1809327
:1009C000600081E6809360008091030190910401B2
:1009D0000197909304018093030107C0A89588E1D3
:1009E0008093600088E08093600078949F918F915D
:1009F0000F900FBE0F901F9018951F93C2DC182FF9
:100A0000882311F00EDD09C081E013DD80E211DDE5
:100A100008DD80E395E70197F1F7812F1F91089595
:100A20000F931F93CF93DF93182FEB01AADC082FAE
:100A3000F8DC002369F4812FCADC80E0FADC812F26
:100A40008F5FEDDC08DD888310DD8983EADC02C07E
:100A500018821982802FDF91CF911F910F910895F5
:100A6000FC01DB01408147FD03C020E030E003C012
:100A7000419520E830E0818190E0807C9070803862
:100A8000910549F0803C910549F08034910541F48D
:100A9000275E3F4F05C02E5C3F4F02C0255B3F4F96
:100AA0004C9311962C930895ECE7F0E080818062DE
:100AB0008083EAE7F0E0808180688083EEE7F0E001
:100AC00080818F6080830895EAE7F0E08081806113
:100AD000808380818F7B80830895FC0180917A00E0
:100AE00084FFFCCF8091780080838091790081839E
:100AF0000895882311F480E203C0813021F481E25B
:100B000080937C0009C0823011F482E2F9CF8330F7
:100B100011F483E2F5CF000080917A008064809325
:100B20007A00809164008E7F809364000895DC01D8
:100B300001C06D9341505040E0F70895F894FFCF05
:060B4000010101060000A6
:00000001FF
