:1000000040C05AC059C058C058C056C055C07EC024
:1000100053C052C051C050C04FC04EC063C04CC04E
:100020004BC04AC0D4C148C004C246C045C044C049
:1000300043C042C00DC40AC40DC40EC40FC410C4D2
:1000400011C422C421C410C41DC41CC41BC41AC4BE
:1000500019C418C417C40AC40BC40CC40DC40EC4FC
:100060000FC41EC41BC41EC41FC420C421C422C488
:1000700023C424C425C426C427C428C429C42AC42C
:100080002BC411241FBECFEFD4E0DEBFCDBF11E0E3
:10009000A0E0B1E0E4EEF8E002C005900D92A632D7
:1000A000B107D9F712E0A6E2B1E001C01D92A1317B
:1000B000B107E1F794D014C4A3CF1F920F920FB6EB
:1000C0000F9211248F9380912601882329F430996F
:1000D00003C081E0809327018F910F900FBE0F9096
:1000E0001F9018951F920F920FB60F9211248F93A5
:1000F00080912601813019F48093340101C0000001
:100100008F910F900FBE0F901F9018951F920F9216
:100110000FB60F9211248F9380912801813019F42A
:100120008093350101C000008F910F900FBE0F909A
:100130001F901895982FFB0187FF03C081E08783EC
:1001400001C0178296FF03C081E0868301C016823A
:1001500095FF03C081E0858301C0158294FF03C031
:1001600081E0848301C0148293FF03C081E0838314
:1001700001C0138292FF03C081E0828301C012821A
:1001800091FF03C081E0818301C0118290FF03C011
:1001900081E0808308951082089510920B011092DF
:1001A0000C0110920D0110920E0110920F0110928D
:1001B0001001F89486E88AB95B9A5C9A5D9A5E9A17
:1001C000519A589A409A399A8FE384B9289A85D0DF
:1001D000A4D0EAD204D30AD31CD3789408951F93F1
:1001E000DCDF80E091E0E7D011E0909127019130D1
:1001F000A9F4309910C080912601882351F4809190
:1002000029018A3031F09093260110922A01E3D21D
:1002100003C0000001C0000010922701809134014A
:10022000813019F4B5D110923401809135018130BB
:1002300019F440D11092350180912901882391F061
:1002400080910B0198D0EBE0F1E08181819381E016
:10025000E631F807D1F710921501809129018150FC
:100260008093290180913801882309F4BECF8091C1
:100270002801882309F0B9CF5FD080931A016BE27F
:1002800071E058DF109328011092B200809118019C
:10029000909119019093890080938800C8D21092A0
:1002A00033012898A2CF8091C00087FFFCCF8091B6
:1002B000C6000895982F8091C00085FFFCCF9093D1
:1002C000C6000895FC0191918091C00085FFFCCF8C
:1002D0009093C6009923B9F70895E0ECF0E080818F
:1002E0008260808383E091E09093C5008093C40096
:1002F00088ED8093C100E2ECF0E08081866080832D
:100300000895E1ECF0E08081806880830895E1EC5D
:10031000F0E080818F7780830895E6E4F1E0119228
:1003200081E0EB3AF807D9F7EBEAF1E0119282E0CD
:10033000E031F807D9F7089580913801882311F446
:10034000EFEF17C080913701E82FF0E0E555FE4F41
:10035000E0818F5F80933701853610F0109237016E
:1003600080913801882329F0809138018150809351
:1003700038018E2F0895282F90913C019436C8F4AF
:1003800080913A01E82FF0E0EA5BFE4F20838F5F17
:1003900080933A01853610F010923A019F5F909356
:1003A0003C01915039F481E0809345012093C600CF
:1003B0000895FFCF0895CF93DF93EC0102C02196FB
:1003C000DADF88818823D9F7DF91CF9108951F92D2
:1003D0000F920FB60F9211248F93EF93FF93E0913A
:1003E00036018091C600F0E0E555FE4F8083809194
:1003F00036018F5F8093360180913601853610F08B
:1004000010923601809138018F5F8093380180917E
:100410003801853630F084E68093380181E080939E
:100420003901FF91EF918F910F900FBE0F901F90A8
:1004300018951F920F920FB60F9211242F938F933E
:100440009F93EF93FF9390913C01992349F1809101
:100450004501813071F41092450180913B018F5F1D
:1004600080933B01853610F010923B0191509093A0
:100470003C0120913C01222399F080913B01E82F1F
:10048000F0E0EA5BFE4F90819093C6008F5F80930F
:100490003B01853610F010923B01215020933C0126
:1004A000FF91EF919F918F912F910F900FBE0F9021
:1004B0001F901895809140018F5F8093400180319B
:1004C00019F5209133012830F8F4E22FF0E0E55DD2
:1004D000FE4F8081882351F4809118019091190179
:1004E0009093890080938800289809C08091160114
:1004F000909117019093890080938800289A2F5F2C
:10050000209333011092400180914001803191F499
:1005100080913301883071F4809116019091170118
:100520009093890080938800289A89E08093330112
:1005300010924001809140018C3159F48091330137
:10054000893039F410923301109228011092400141
:1005500069D1089510922A013ED180912A010000AC
:100560008430E9F735D1809110028F5F80931002BB
:10057000813069F0823059F0843049F0853039F0AB
:10058000863029F0883011F08FEF089588E00895C3
:1005900090912A019F5F90932A01809142018330BC
:1005A00078F4943059F410922A018F5F80934201BD
:1005B00010924301309990C0000039C0000037C04C
:1005C000833081F4983099F510922A0184E0809369
:1005D0004201309903C01092230129C081E0809329
:1005E000230125C0843081F4943009F510922A014A
:1005F00085E080934201309903C01092240117C016
:1006000081E08093240113C0853081F4943079F423
:1006100010922A0186E080934201309903C0109223
:10062000250105C081E08093250101C00000809173
:100630004201863081F590912301992321F4809124
:100640002401882371F080912401882321F4809172
:100650002501882331F080912501882349F49923CD
:1006600039F4E0914301F0E0E55EFE4F108207C0EF
:10067000E0914301F0E0E55EFE4F81E080838091F0
:1006800043018F5F80934301883011F083E001C004
:1006900087E08093420190914201973071F48091FC
:1006A0002A01883041F410922A0180934201309B44
:1006B00013C000001AC0000018C0892F8850823073
:1006C00098F480912A01843069F410922A019F5F86
:1006D00090934201309904C07BD010922601089576
:1006E000000003C0000001C00000809142018A3078
:1006F00009F059C06DD010924101809122018130E2
:1007000019F480E88093410180912101813029F41E
:1007100080914101805C8093410180912001813072
:1007200029F480914101805E8093410180911F01F5
:10073000813029F480914101805F80934101809153
:100740001E01813029F480914101885F809341012D
:1007500080911D01813029F4809141018C5F80934B
:10076000410180911C01813029F4809141018E5F0B
:100770008093410180911B01813029F480914101D6
:100780008F5F809341011092260180912901E82F0B
:10079000F0E0E55FFE4F9091410190838F5F809381
:1007A0002901109242010895E8E6F0E0808182601C
:1007B0008083ECE6F0E08081816080830895E8E644
:1007C000F0E080818460808388E780936D000895E5
:1007D00015BC16BC089516BC83E085BD089582E063
:1007E00084BD80936E0080E287BD089510928500DD
:1007F0001092840080E48093800089E080938100DF
:1008000010926F0089EF90E09093890080938800A8
:10081000089582E08093B0008093700080E280931E
:10082000B30008951092B1001092B2000895109292
:10083000B20084E08093B100089590E0FC01F0974D
:10084000E731F105F8F4E65EFF4F099481E0089581
:1008500080E0089582E0089583E0089584E008959B
:1008600085E0089586E0089589E008958AE0089576
:100870008BE008958CE008958DE008958EE0089552
:100880008FE008958FEF089587E00895E82FF0E056
:10089000E031F10518F5EF5CFF4F099481E308950D
:1008A00080E3089582E3089583E3089584E308953F
:1008B00085E3089586E3089587E3089588E308951E
:1008C00089E3089581E4089582E4089583E4089516
:1008D00084E4089585E4089586E408958FEF0895EB
:0408E000F894FFCFBA
:1008E400456E6420496E6974200D0000000000000C
:1008F400000000000000DE001C01200000000000D9
:06090400000000000000ED
:00000001FF
