:1000000019C033C032C031C030C02FC02EC02DC087
:100010002CC02BC02AC029C028C027C026C025C09C
:1000200024C023C0B2C021C020C01FC01EC01DC03C
:100030001CC01BC011241FBECFEFD4E0DEBFCDBF5C
:1000400013E0A0E0B1E0ECEBF7E002C005900D9208
:10005000A234B107D9F713E0A2E4B3E001C01D92C6
:10006000AD35B107E1F770D1A7C3CACF1092B9007F
:1000700080E28093B8000895982F84EA8093BC00B2
:100080008091BC0087FFFCCF8091B900887F8830C9
:1000900021F0803111F081E008959093BB0084E855
:1000A0008093BC008091BC0087FFFCCF9091B90089
:1000B000987F983111F480E0089580E0903409F041
:1000C00081E00895982F44EA34E824E94093BC0085
:1000D0008091BC0087FFFCCF8091B900887F883079
:1000E00011F0803199F79093BB003093BC00809160
:1000F000BC0087FFFCCF8091B900887F803211F06F
:10010000883539F42093BC008091BC0084FDFCCF7D
:10011000DDCF0895B1DF089584E98093BC0080911C
:10012000BC0084FDFCCF08958093BB0084E88093DD
:10013000BC008091BC0087FFFCCF8091B90090E0AB
:10014000887F883209F091E0892F089584EC8093AC
:10015000BC008091BC0087FFFCCF8091BB0008955C
:1001600084E88093BC008091BC0087FFFCCF809125
:10017000BB000895F894209A219A289877DF83E3AA
:1001800090E069D1A2D1789408951F920F920FB692
:100190000F9211242F933F934F935F936F937F930D
:1001A0008F939F93AF93BF93EF93FF938091C6007C
:1001B000809342038533E1F1863370F48233F1F0AA
:1001C000833320F4813309F059C010C0833301F127
:1001D000843309F053C024C08733D1F1873380F1D1
:1001E0008833F1F1883609F049C042C080E964E4FF
:1001F00073E08AD180935B0381E007C082E964E405
:1002000073E082D180934F0382E08093430336C032
:1002100084E964E473E078D18093510383E0F5CFFF
:1002200086E964E473E070D18093520384E0EDCFFB
:1002300088E964E473E068D180934E0385E0E5CFFC
:100240008AE964E473E060D18093480386E0DDCFFF
:100250008CE964E473E058D18093470387E0D5CFFD
:100260008EE964E473E050D18093500388E0CDCFF1
:1002700080E86BE473E08ED180935C03909142033D
:10028000892F8153883078F584E493E069E473E042
:1002900009D289E493E065E573E028D284E5E9D0EA
:1002A00087EAE7D080E091E0F3D080914303805D5E
:1002B000E0D08AE091E0ECD080915503DAD08091D3
:1002C0005603D7D080915703D4D08EE2D2D08091FC
:1002D0005803CFD080915903CCD0E5D0109244037D
:1002E0001092450320C09836E8F08BE493E073D178
:1002F00080935A0363E573E08AD185E2BAD088E43B
:10030000B8D08EE091E0C4D080915303B2D08091F8
:100310005403AFD0C8D010924B0310924C031092EC
:100320004D0301C00000FF91EF91BF91AF919F91EC
:100330008F917F916F915F914F913F912F910F908E
:100340000FBE0F901F90189515DF89E191E0BAD08C
:100350008AE491E0B7D0A7D080E9C3D080935B0353
:10036000882319F085E791E002C084E991E0AAD0E2
:1003700082E9B7D080934F03882319F089EA91E08E
:1003800002C088EC91E09ED084E9ABD08093510309
:10039000882319F08DED91E002C08CEF91E092D0AE
:1003A00086E99FD080935203882319F081E192E07F
:1003B00002C080E392E086D088E993D080934E0318
:1003C000882319F085E492E002C084E692E07AD0B6
:1003D0008AE987D080934803882319F089E792E05F
:1003E00002C088E992E06ED08CE97BD0809347030D
:1003F000882319F08DEA92E002C08CEC92E062D082
:100400008EE96FD080935003882319F081EE92E03B
:1004100002C080E093E056D080E8A6D080935C03D1
:10042000882319F085E193E002C080E393E04AD08D
:1004300028EC30E0289A80ED97E0F9013197F1F748
:100440000197D9F7289880ED97E0F9013197F1F7F6
:100450000197D9F7EFCF85E38093C400E1ECF0E09A
:10046000808188618083E2ECF0E080818660808317
:100470000895982F8091C00085FFFCCF9093C6000F
:1004800008958091C00087FFFCCF8091C600089539
:10049000FC0191918091C00085FFFCCF9093C60034
:1004A0009923B9F708958091C00085FFFCCF8DE0B6
:1004B0008093C6008091C00085FFFCCF8AE08093C6
:1004C000C6000895E5DFEFDF0895E1ECF0E08081FC
:1004D000806880830895E1ECF0E080818F778083ED
:1004E00008951F93C9DD182F882311F015DE09C068
:1004F00081E01ADE80E218DE0FDE80E395E70197E7
:10050000F1F7812F1F9108950F931F93CF93DF93DE
:10051000182FEB01B1DD082FFFDD002369F4812FD7
:10052000D1DD80E001DE812F8F5FF4DD0FDE888377
:1005300017DE8983F1DD02C018821982802FDF91D6
:10054000CF911F910F9108951F9396DD182F882347
:1005500011F0E2DD02C08EEFE7DD80E395E7019761
:10056000F1F7812F1F9108951F93182FEDDF812F31
:1005700083DD182F882311F0CFDD09C086EED4DD8E
:1005800083E0D2DDC9DD80E395E70197F1F7812FA4
:100590001F9108950F931F93CF93DF93182FEB01B3
:1005A0006BDD082FB9DD002379F4812F8BDD85EE1B
:1005B000BBDD812F8F5F86DDC9DD8883C7DD898341
:1005C000CFDD8A83A9DD01C01882802FDF91CF9112
:1005D0001F910F910895FC01708160E0882777FDDD
:1005E0008095982F2181620F711D811D911D6C7F57
:1005F0002DE730E040E050E0B4D0BC0188279927D7
:10060000262F2650273B08F02258822F0895282FA6
:10061000FB016AE0C5D0805D8083822FC1D0905DF0
:10062000918308950F931F93182F26DD082F882399
:1006300019F072DD299A12C08CEA76DD82E074DD51
:100640006BDD80E395E70197F1F7812F3BDD8EEEBF
:100650006BDD62DD80EF95E50197F1F7802F1F914B
:100660000F9108950F931F93CF93DF93182FEB01F2
:1006700003DD082F51DD002369F4812F23DD8AEA91
:1006800053DD812F8F5F46DD61DD888369DD8983DE
:1006900043DD02C018821982802FDF91CF911F9114
:1006A0000F910895FC01DB01408147FD03C020E06C
:1006B00030E003C0419520E830E0818190E0807C0B
:1006C00090708038910549F0803C910549F0803464
:1006D000910541F4275E3F4F05C02E5C3F4F02C09D
:1006E000255B3F4F4C9311962C930895DC01FB0141
:1006F0008C916AE055D0805D81838C9151D0905D62
:10070000928311968C91119790E08F779070893138
:10071000910579F08A3191051CF4892B41F013C0C1
:100720008233910541F08B34910569F408C080E370
:100730000BC082E305C085E3838380E306C087E3C3
:10074000838385E302C085E28383848311968C9141
:1007500080788083803811F48DE201C080E280834C
:100760000895629FD001739FF001829FE00DF11DFB
:10077000649FE00DF11D929FF00D839FF00D749F1B
:10078000F00D659FF00D9927729FB00DE11DF91FC7
:10079000639FB00DE11DF91FBD01CF011124089524
:1007A000991B79E004C0991F961708F0961B881FC3
:0C07B0007A95C9F780950895F894FFCF62
:1007BC00432053656E736F722000203A2000205343
:1007CC00656E736F72203A2000202F3D3D205765D7
:1007DC006C636F6D6520696E2074686520493243C7
:1007EC00206275732074657374657220736F667400
:1007FC0077617265203D3D5C200020202020204D3B
:10080C004132454E20323031322D32303133204896
:10081C0072642076312E31202D205366742076316F
:10082C002E322E3200445337353035206E31206352
:10083C006F6E6E656374696F6E206572726F722075
:10084C0021212100445337353035206E3120636F20
:10085C006E6E65637465642E0044533735303520F5
:10086C006E3220636F6E6E656374696F6E20657295
:10087C00726F722021212100445337353035206EA0
:10088C003220636F6E6E65637465642E004453375B
:10089C00353035206E3320636F6E6E656374696F0F
:1008AC006E206572726F72202121210044533735FE
:1008BC003035206E3320636F6E6E65637465642E05
:1008CC0000445337353035206E3420636F6E6E65BF
:1008DC006374696F6E206572726F72202121210022
:1008EC00445337353035206E3420636F6E6E65633C
:1008FC007465642E00445337353035206E352063D3
:10090C006F6E6E656374696F6E206572726F7220A4
:10091C0021212100445337353035206E3520636F4B
:10092C006E6E65637465642E004453373530352024
:10093C006E3620636F6E6E656374696F6E206572C0
:10094C00726F722021212100445337353035206ECF
:10095C003620636F6E6E65637465642E0044533786
:10096C00353035206E3720636F6E6E656374696F3A
:10097C006E206572726F722021212100445337352D
:10098C003035206E3720636F6E6E65637465642E30
:10099C0000445337353035206E3820636F6E6E65EA
:1009AC006374696F6E206572726F72202121210051
:1009BC00445337353035206E3820636F6E6E656367
:1009CC007465642E00534854323120636F6E6E652B
:1009DC006374696F6E206572726F72202121210021
:1009EC00534854323120636F6E6E65637465642EA8
:0209FC000000F9
:00000001FF
