:1000000019C0F9C3C4C381C130C02FC064C42DC09E
:100010002CC02BC02AC049C428C027C026C025C078
:1000200024C023C0D7C021C020C01FC01EC01DC017
:100030001CC01BC011241FBECFEFD4E0DEBFCDBF5C
:1000400011E0A0E0B1E0E6ECF9E002C005900D920D
:10005000A830B107D9F711E0A8E0B1E001C01D92C6
:10006000A431B107E1F708D0ACC4CACF789429D441
:10007000E1D1F8D063D308950F931F93DF93CF930B
:1000800000D00F92CDB7DEB7F1DF8E010F5F1F4FAB
:10009000C8010BD289818A3471F18B3418F487340A
:1000A000B9F727C08B3419F08D3491F711C08B81CB
:1000B000882359F08A81882311F481E001C080E00F
:1000C00003D18B811ED180E001C081E0F1D0E0CF6F
:1000D0008B81882359F08A81882311F481E001C043
:1000E00080E0F8D08B810FD180E001C081E0E6D0C4
:1000F000CFCF41D301C045D38B839A83C80163E03E
:1001000065D2C6CFECE7F0E0808180648083EAE7C7
:10011000F0E0808186688083089580917A00806411
:1001200080937A0080917A0084FFFCCF80917A00DE
:1001300080937A009091780080917900382F20E0A8
:10014000290F311DC9010895ECE7F0E080818E7F11
:100150008083E3DF0895ECE7F0E0808181608083B5
:10016000DCDF08959093C5008093C40082E0809303
:10017000C000E1ECF0E080818861808386E08093BC
:10018000C20081E0809308010895982F8091C000FB
:1001900085FFFCCF9093C60008958091C00087FD35
:1001A00004C0809109018130C1F38091C600089597
:1001B000FC0190E00CC08091C00087FD04C08091DC
:1001C00009018130C1F38091C60081939F5F96172A
:1001D00090F308951F920F920FB60F921124109270
:1001E00008010F900FBE0F901F9018959C01DC0125
:1001F0000D900020E9F71197A81BB90B90E00AC0F9
:10020000E20FF31F40818091C00085FFFCCF409337
:10021000C6009F5FE92FF0E0EA17FB0788F3089517
:10022000B0D2A0E0B0E0BC01CD012FEF33E040E060
:1002300050E07FD323E730E040E050E099D3C9019C
:10024000089599D2A0E0B0E0BC01CD012FEF33E0DA
:1002500040E050E06ED323E730E040E050E088D348
:10026000C901089577D208958AB180698AB987B1A2
:100270008C6087B980916B00866C80936B00809155
:100280006800816080936800199902C01092000193
:100290001A9902C0109201011E9902C01092020127
:1002A0001F9902C01092030183B180930A0108953F
:1002B000882311F45C9A08955C980895882311F4BA
:1002C0005F9A08955F980895813011F4429A0895D5
:1002D00042980895813011F4439A089543980895FF
:1002E00088B190E096958795969587958170089549
:1002F00088B190E033E0969587953A95E1F7817063
:10030000089587BD089588BD08951F920F920FB676
:100310000F9211248F939F9380910A0193B1982794
:100320009234A1F1933448F4943009F454C09034D9
:10033000C9F1923009F074C00FC0903809F464C05C
:10034000913820F4943409F06BC039C0923889F0A8
:10035000943809F065C04CC0199907C0809100011C
:10036000813019F4109200015BC081E0809300019C
:1003700057C0199907C080910001813019F410927B
:10038000000142C081E0809300013EC0199907C07E
:1003900080910001813019F41092000103C081E0C6
:1003A000809300011E9907C080910201813019F4E9
:1003B0001092020135C081E08093020131C01E9984
:1003C00007C080910201813019F41092020103C02C
:1003D00081E0809302011A9907C080910101813068
:1003E00019F4109201011CC081E08093010118C032
:1003F0001A9907C080910101813019F4109201010E
:1004000003C081E0809301011F9907C0809103011F
:10041000813019F41092030103C081E0809303013D
:1004200083B180930A019F918F910F900FBE0F901F
:100430001F90189519DF10D05C9A5F9A42984398E4
:100440008FEF87BD88BD809103018130E1F75C9813
:100450005F9817BC18BC08958AB180668AB984B5C4
:10046000836A84BD85B5816085BD0895FC0192E0F5
:1004700020E007C080819827803109F498272F5FFA
:1004800031962617B8F383E18927089580910C01EE
:1004900090910B01890F90910D01890F90910E01A0
:1004A000890F90910F01890F08959F92AF92BF928B
:1004B000CF92DF92EF92FF920F931F93DF93CF9330
:1004C00000D00F92CDB7DEB76C01992493945E01F2
:1004D0000894A11CB11C90920901C50161E070E073
:1004E00043E050E067D259DE823009F055C080E128
:1004F0004CDEFF2410E082E0E82E80E197E2BDD1DF
:100500004CDE082FC6D190910901913041F5E026CB
:1005100080E1F81619F00031A9F40DC0003179F42A
:100520008A81813041F489831A828B83F601E10F3D
:10053000F11DF0820EC019829A839B830BC09A83AF
:100540001B8203C099839A839B83F601E10FF11DFF
:1005500000831F5FF02E8981882379F603C085E12F
:1005600014DE04C0F02E8B81882339F680910901B6
:10057000813091F4033081F480E197E27ED10DDE89
:10058000182F87D180910901813031F41E1521F493
:1005900080E1FBDD91E003C085E1F7DD90E0809133
:1005A0000901882309F497CF992309F494CF0F9078
:1005B0000F900F90CF91DF911F910F91FF90EF90CF
:1005C000DF90CF90BF90AF909F900895CF92DF9231
:1005D000EF92FF920F931F93CF93DF937C01062F2F
:1005E00085E0EBE0F1E0DF011D928A95E9F7C701B4
:1005F0003DDFD82ECC24C394C0920901C0920801DB
:1006000082E0C3DD80E197E238D1C7DD182F41D108
:1006100080910901813009F077C0103109F06AC07A
:100620008091C10080688093C100E70110E011C093
:1006300080910801813079F48881A7DD888180313B
:1006400031F480910801813031F480E19EDD1F5F3B
:100650002196101768F380910801813079F580E1C7
:1006600094DD80910801813049F583E08EDD809131
:100670000801813019F58091C1008F778093C10006
:100680008D2D83DD809108018130E9F480E197E2CE
:10069000F4D083DD182FFDD080910901813041F421
:1006A0001031B1F080910C018F5F80930C0110C06C
:1006B00080910D018F5F80930D010AC08091C10070
:1006C0008F778093C10080910E018F5F80930E0120
:1006D00080910C0190910B01890F90910D01890F70
:1006E00090910E01890F90910F01890F863091F43E
:1006F00081E01BC0123011F482E017C080910B0121
:100700008F5F80930B01E4CF80910F018F5F809307
:100710000F01DECF80910901882309F46DCF80910C
:100720000801882309F468CF80E0DF91CF911F9101
:100730000F91FF90EF90DF90CF90089587E690E0C3
:1007400011DD8DD085E0EBE0F1E0DF011D928A95AF
:10075000E9F70895E9E6F0E080818F6080838DB34A
:1007600083608DBB1092130110921201109211013F
:100770001092100108952091120130911301C901C6
:1007800008952091100130911101C90108951F921F
:100790000F920FB60F9211242F933F934F935F93B5
:1007A0006F937F938F939F93AF93BF93EF93FF9339
:1007B0009FDD882331F48091100190911101019601
:1007C00005C0809110019091110101979093110142
:1007D00080931001FF91EF91BF91AF919F918F9105
:1007E0007F916F915F914F913F912F910F900FBE2D
:1007F0000F901F9018951F920F920FB60F92112411
:100800002F933F934F935F936F937F938F939F9318
:10081000AF93BF93EF93FF9363DD882331F480910F
:10082000120190911301019605C0809112019091DF
:10083000130101979093130180931201FF91EF919F
:10084000BF91AF919F918F917F916F915F914F91E8
:100850003F912F910F900FBE0F901F901895E1E8D8
:10086000F0E0808188608083EFE6F0E08081826044
:10087000808381E0809309010895F8949093890022
:10088000809388007894E1E8F0E080818260808342
:100890000895E1E8F0E080818D7F8083F8941092E4
:1008A000850010928400789408951F920F920FB6DD
:1008B0000F921124109209010F900FBE0F901F90FC
:1008C0001895F894A895E0E6F0E088E1808381E649
:1008D0008083789408951F920F920FB60F9211247F
:1008E0008F939F93F8948091050190910601892B35
:1008F00089F0A89588E18093600081E6809360008C
:1009000080910501909106010197909306018093D3
:10091000050107C0A89588E18093600088E0809376
:10092000600078949F918F910F900FBE0F901F9051
:100930001895629FD001739FF001829FE00DF11D19
:10094000649FE00DF11D929FF00D839FF00D749F49
:10095000F00D659FF00D9927729FB00DE11DF91FF5
:10096000639FB00DE11DF91FBD01CF011124089552
:10097000A1E21A2EAA1BBB1BFD010DC0AA1FBB1FA3
:10098000EE1FFF1FA217B307E407F50720F0A21B15
:10099000B30BE40BF50B661F771F881F991F1A9482
:1009A00069F760957095809590959B01AC01BD01AC
:1009B000CF010895DC0101C06D9341505040E0F734
:0609C0000895F894FFCF3A
:0809C6000101010101E0000044
:00000001FF
