:1000000019C033C032C031C030C02FC06EC62DC041
:100010002CC02BC02AC0F5C528C027C026C025C0CB
:1000200024C023C03FC221C020C01FC01EC01DC0AD
:100030001CC01BC011241FBECFEFD4E0DEBFCDBF5C
:1000400012E0A0E0B1E0E6EAFBE102C005900D920B
:10005000A231B107D9F712E0A2E1B2E001C01D92CE
:10006000A936B107E1F7ADD29CCDCACFFC0192E031
:1000700020E007C080819827803109F498272F5FFE
:1000800031962617B8F383E18927089580911802E5
:1000900090911702890F90911902890F90911A027D
:1000A000890F90911B02890F08959F92AF92BF9282
:1000B000CF92DF92EF92FF920F931F93DF93CF9334
:1000C00000D00F92CDB7DEB76C0110E09924939465
:1000D0005E010894A11CB11C8091C1008F778093B0
:1000E000C10090921C02C50161E070E043E050E065
:1000F000EFDC113011F4ACD502C08091C600823023
:1001000009F055C080E19CD5FF2410E082E0E82E84
:1001100080E89AE15ED59CD5082F67D590911C02A6
:10012000913041F5E02680E1F81619F00031A9F48C
:100130000DC0003179F48A81813041F489831A82BB
:100140008B83F601E10FF11DF0820EC019829A83B4
:100150009B830BC09A831B8203C099839A839B83E2
:10016000F601E10FF11D00831F5FF02E89818823C6
:1001700079F603C085E164D504C0F02E8B81882315
:1001800039F680911C02813091F4033081F480E8CB
:100190009AE11FD55DD5182F28D580911C0281309A
:1001A00031F41E1521F480E14BD591E003C085E1C7
:1001B00047D590E080911C0211E0882309F48CCF90
:1001C000992309F489CF8091C10080688093C10090
:1001D0000F900F900F90CF91DF911F910F91FF9093
:1001E000EF90DF90CF90BF90AF909F900895CF9207
:1001F000DF92EF92FF920F931F93CF93DF93D82E4E
:10020000E92EF62E85E0E7E1F2E0DF011D928A9506
:10021000E9F72D2D392FC901FC0120E092E007C03C
:1002200080819827803109F498272F5F31962F1508
:10023000B8F303E10927CC24C394C0921C02C092F6
:10024000160282E0FDD480E89AE1C3D401D5182FCC
:10025000CCD480911C02813009F07AC0103109F0B1
:100260006DC08091C10080688093C1002D2D3E2D0E
:10027000C901EC0110E011C080911602813079F4BF
:100280008881DED48881803131F4809116028130FA
:1002900031F480E1D5D41F5F21961F1568F380915A
:1002A0001602813079F580E1CBD48091160281303D
:1002B00049F583E0C5D480911602813019F580910B
:1002C000C1008F778093C100802FBAD4809116022D
:1002D0008130E9F480E89AE17CD4BAD4182F85D42F
:1002E00080911C02813041F41031B1F080911802EC
:1002F0008F5F8093180210C0809119028F5F8093E6
:1003000019020AC08091C1008F778093C10080914B
:100310001A028F5F80931A0280911802909117023F
:10032000890F90911902890F90911A02890F90916B
:100330001B02890F863091F481E01BC0123011F44A
:1003400082E017C0809117028F5F80931702E4CF7D
:1003500080911B028F5F80931B02DECF80911C0275
:10036000882309F46ACF80911602882309F465CFA7
:1003700080E0DF91CF911F910F91FF90EF90DF9080
:10038000CF90089587E690E048D415D485E0E7E162
:10039000F2E0DF011D928A95E9F708951092B90005
:1003A00080E28093B8000895982F84EA8093BC007F
:1003B0008091BC0087FFFCCF8091B900887F883096
:1003C00021F0803111F081E008959093BB0084E822
:1003D0008093BC008091BC0087FFFCCF9091B90056
:1003E000987F983111F480E0089580E0903409F00E
:1003F00081E00895982F44EA34E824E94093BC0052
:100400008091BC0087FFFCCF8091B900887F883045
:1004100011F0803199F79093BB003093BC0080912C
:10042000BC0087FFFCCF8091B900887F803211F03B
:10043000883539F42093BC008091BC0084FDFCCF4A
:10044000DDCF0895B1DF089584E98093BC008091E9
:10045000BC0084FDFCCF08958093BB0084E88093AA
:10046000BC008091BC0087FFFCCF8091B90090E078
:10047000887F883209F091E0892F089584EC809379
:10048000BC008091BC0087FFFCCF8091BB00089529
:1004900084E88093BC008091BC0087FFFCCF8091F2
:1004A000BB0008951F920F920FB60F9211242F9345
:1004B0008F939F93EF93FF9380910601813061F4B6
:1004C00080913802882319F41092160214C08130EA
:1004D00091F4109203010FC08091130290911402C5
:1004E0002091C600FC01E15CFD4F208301969093B2
:1004F000140280931302FF91EF919F918F912F919E
:100500000F900FBE0F901F901895FF920F931F939F
:10051000162F042FF090060191E0F916D9F480937C
:10052000240240932502609326028091C1008F77B8
:100530008093C1001092380284E292E063E057DEBB
:1005400080932902F09238028091C10080688093E4
:10055000C10005C075D3812F73D3802F71D31F9134
:100560000F91FF900895F894519A589AEFE3F2E0B2
:10057000119282E0E835F807D9F710DF03DF8091A8
:10058000C10080688093C10081E0809338026DD4FF
:1005900080E08BD48DE192E07CD48DE192E063E247
:1005A00072E040E050E021D59091240280E020915B
:1005B0002302820F911D9093600280935F027894D2
:1005C00008950F931F93CFDF80E9BDD382E9BBD39A
:1005D00084E9B9D386E9B7D388E9B5D38AE9B3D337
:1005E0008CE9B1D38EE9AFD380E8C8D401E01FEF26
:1005F00080910301882339F48FE392E056DD109255
:1006000057020093030180913F02882309F4D1C26D
:10061000823509F4A8C1833540F5843409F4DCC07F
:10062000853480F4813409F489C0823420F4803424
:1006300009F0A3C269C0823409F49AC0833409F076
:100640009CC2B0C0873409F415C1883438F48534AD
:1006500009F4DCC0863409F090C2F2C0803509F498
:1006600023C1813509F089C237C1803809F440C0FF
:10067000813878F4803609F4BDC1813620F48335A1
:1006800009F07BC251C28037B1F0813709F075C2E1
:1006900026C0813909F461C2823930F4813871F1A0
:1006A000803909F06AC254C2823909F45BC28339C5
:1006B00009F063C25CC280E86DE172E075D4882302
:1006C00029F48DE192E023D480932E0240912E02F2
:1006D000409361021092260280E760E007C0109309
:1006E00068021093280281E76FEF4FEF0EDF46C2DA
:1006F0001093220210935C0280E8F6CF10935B0205
:100700001093300281E8F0CF80E96DE172E02ED3E2
:10071000882329F0109323021093240205C08DE151
:1007200092E063E272E042D34091230240932002C0
:10073000609124026093650280E4D8CF82E96DE184
:1007400072E014D3882329F010932302109324021B
:1007500005C08DE192E063E272E028D3409123026C
:1007600040932C02609124026093660281E4BECF24
:1007700084E96DE172E0FAD2882329F01093230214
:100780001093240205C08DE192E063E272E00ED383
:1007900040912302409364026091240260936702B7
:1007A00082E4A4CF86E96DE172E0E0D2882329F0EB
:1007B000109323021093240205C08DE192E063E2BE
:1007C00072E0F4D2409123024093620260912402CD
:1007D00060935E0283E48ACF88E96DE172E0C6D25D
:1007E000882329F0109323021093240205C08DE181
:1007F00092E063E272E0DAD24091230240932F024A
:10080000609124026093580284E470CF8AE96DE11C
:1008100072E0ACD2882329F01093230210932402B3
:1008200005C08DE192E063E272E0C0D24091230204
:10083000409327026091240260933D0285E456CFE5
:100840008CE96DE172E092D2882329F010932302A3
:100850001093240205C08DE192E063E272E0A6D21B
:100860004091230240932A026091240260932B025C
:1008700086E43CCF8EE96DE172E078D2882329F0DE
:10088000109323021093240205C08DE192E063E2ED
:1008900072E08CD24091230240932D026091240299
:1008A0006093330287E422CF80E0FFD28DE192E0B3
:1008B000F0D240915F02509160028DE192E063E2DC
:1008C00072E093D36091230260932102409124024D
:1008D0004093590280E50ACF81E0E7D28DE192E0B2
:1008E000D8D28DE192E063E272E0DBD38091230203
:1008F000809331028091240280933E02109235024F
:10090000109234021EC081E0D0D28DE192E0C1D2BB
:100910008DE192E063E272E0C4D3809123022091E2
:10092000310230E0280F311D359527952093310293
:100930008091340290913502019690933502809314
:1009400034028091040190910501029720913402B4
:100950003091350282179307B0F681E5609131023C
:1009600040913E02C3CE82E0A0D28DE192E091D2CE
:100970008DE192E063E272E094D380912302809350
:100980003A0280912402809337021092350210922D
:1009900034021EC082E089D28DE192E07AD28DE1EC
:1009A00092E063E272E07DD38091230220913A02CB
:1009B00030E0280F311D3595279520933A0280911C
:1009C000340290913502019690933502809334025F
:1009D0008091040190910501029720913402309199
:1009E000350282179307B0F682E560913A02409192
:1009F00037027CCE81E059D28DE192E04AD28DE17E
:100A000092E063E272E04DD3809123028093310241
:100A10008091240280933E0210923502109234029B
:100A20001EC081E042D28DE192E033D28DE192E0AE
:100A300063E272E036D3809123022091310230E0EC
:100A4000280F311D3595279520933102809134026E
:100A500090913502019690933502809334028091F3
:100A600004019091050102972091340230913502E2
:100A700082179307B0F682E018D28DE192E009D296
:100A80008DE192E063E272E00CD3809123028093C7
:100A90003A0280912402809337021092350210921C
:100AA00034021EC082E001D28DE192E0F2D18DE1EC
:100AB00092E063E272E0F5D28091230220913A0243
:100AC00030E0280F311D3595279520933A0280910B
:100AD000340290913502019690933502809334024E
:100AE0008091040190910501029720913402309188
:100AF000350282179307B0F68091370240913E028B
:100B000050E0480F511D559547954093390280910B
:100B10003A026091310270E0680F711D759567951A
:100B20006093360280E6E2CD83E0BFD18DE192E0B2
:100B3000B0D18DE192E063E272E0B3D26091230222
:100B4000609363024091240240933C0283E5CECD42
:100B50000093010180E960EA0EC01092010181E971
:100B600061EA09C00093020182E962EA04C01092BE
:100B7000020183E963EA40E0B9CD000010923B0234
:100B800090E007C0E92FF0E0E15CFD4F81818083B8
:100B90009F5F9931B8F390933B0210925702809176
:100BA0001302909114020197909314028093130200
:100BB0001FCD00001DCDE1E8F0E0808188608083DA
:100BC000EFE6F0E080818260808381E080931C0208
:100BD0000895F89490938900809388007894E1E8D0
:100BE000F0E08081856080830895E1E8F0E0808115
:100BF0008D7F8083F8941092850010928400789401
:100C000008951F920F920FB60F92112410921C029A
:100C10000F900FBE0F901F9018959093C500809372
:100C2000C40082E08093C000E1ECF0E08081886144
:100C3000808386E08093C20081E08093160208954D
:100C4000982F8091C00085FFFCCF9093C600089537
:100C50008091C00087FD04C080911C028130C1F3E7
:100C60008091C00087FD02C080E008958091C60099
:100C70000895FC0190E012C08091C00087FD04C07F
:100C800080911C028130C1F38091C00087FD02C0B9
:100C900080E002C08091C60081939F5F961760F349
:100CA00008959C01DC010D900020E9F71197A81B25
:100CB000B90B90E00AC0E20FF31F40818091C000A1
:100CC00085FFFCCF4093C6009F5FE92FF0E0EA1755
:100CD000FB0788F30895F894A895E0E6F0E088E132
:100CE000808381E68083789408951F920F920FB6D7
:100CF0000F9211248F939F93F89480910701909104
:100D00000801892B89F0A89588E18093600081E62D
:100D10008093600080910701909108010197909362
:100D200008018093070107C0A89588E180936000BF
:100D300088E08093600078949F918F910F900FBE10
:100D40000F901F9018951F932FDB182F882311F0F9
:100D50007BDB09C081E080DB80E27EDB75DB80E34A
:100D600095E70197F1F7812F1F9108950F931F9336
:100D7000CF93DF93182FEB0117DB082F65DB0023E0
:100D800069F4812F37DB80E067DB812F8F5F5ADBCF
:100D900075DB88837DDB898357DB02C0188219826B
:100DA000802FDF91CF911F910F910895FC01DB01FE
:100DB000408147FD03C020E030E003C0419520E8BA
:100DC00030E0818190E0807C90708038910549F01E
:100DD000803C910549F08034910541F4275E3F4FF6
:100DE00005C02E5C3F4F02C0255B3F4F4C931196D0
:100DF0002C930895DC01FB018C916AE08FD6805D15
:100E000081838C918BD6905D928311968C911197F2
:100E100090E08F7790708931910579F08A31910552
:100E20001CF4892B41F013C08233910541F08B34BF
:100E3000910569F408C080E30BC082E305C085E337
:100E4000838380E306C087E3838385E302C085E272
:100E50008383848311968C9180788083803811F409
:100E60008DE201C080E280830895ECE7F0E08081AC
:100E700080628083EAE7F0E080818768808308955C
:100E8000EAE7F0E080818061808380818F7B8083CE
:100E90000895FC0180917A0084FFFCCF8091780056
:100EA00080838091790081830895882339F480912B
:100EB0007E00816080937E0080E208C0813049F42A
:100EC00080917E00826080937E0081E280937C002E
:100ED00013C0823039F480917E00846080937E005C
:100EE00082E2F4CF833039F480917E008860809371
:100EF0007E0083E2EBCF000080917A0080648093D3
:100F00007A00809164008E7F809364000895FC01D4
:100F1000708160E0882777FD8095982F2181620F8E
:100F2000711D811D911D6C7F2DE730E040E050E088
:100F3000D6D5BC0188279927262F2650273B08F0B5
:100F40002258822F0895282FFB016AE0E7D5805DA3
:100F50008083822FE3D5905D918308951F9324DAD7
:100F6000182F882311F070DA02C08EEF75DA80E353
:100F700095E70197F1F7812F1F9108951F93182F7F
:100F8000EDDF812F11DA182F882311F05DDA09C007
:100F900086EE62DA83E060DA57DA80E395E701975C
:100FA000F1F7812F1F9108950F931F93CF93DF9334
:100FB000182FEB01F9D9082F47DA002379F4812F94
:100FC00019DA85EE49DA812F8F5F14DA57DA8883D0
:100FD00055DA89835DDA8A8337DA01C01882802F77
:100FE000DF91CF911F910F910895CF92DF92EF92F1
:100FF000FF920F931F93CF93DF93FC01EB016A01E4
:1010000080816181882329F4662381F41882198202
:101010003FC0262F30E0220F331F220F331F82954F
:10102000869586958370280F311D06C0262F30E0E7
:10103000220F331F220F331FB901882777FD8095B8
:10104000982FFFD228E03CEA44E550E405D27B012A
:101050008C01B601882777FD8095982FF2D29B01ED
:10106000AC01C801B701A6D146D39B0177FD06C0EC
:101070006883872F992787FD9A9509C08827992724
:10108000821B930B8883892F990F990B8058898332
:10109000DF91CF911F910F91FF90EF90DF90CF9054
:1010A0000895CF93DF93FC01EB01408161814423DC
:1010B00069F0262F30E0220F331F220F331F429595
:1010C000469546954370240F311D06C0262F30E00B
:1010D000220F331F220F331F25503240B9018827BA
:1010E00077FD8095982FADD224E63BE34FE15FE397
:1010F000B3D101D39B0177FD06C06883872F992761
:1011000087FD9A9509C088279927821B930B8883AE
:10111000892F990F990B80588983DF91CF9108957A
:10112000A0E0B0E0E5E9F8E005C5DC012B01FA013B
:101130009C91923008F439C1EB018881823008F427
:1011400033C1943069F4843009F02FC111969C9119
:1011500011978981981709F428C1A9E0B1E025C148
:10116000843009F421C18230A9F4923009F01DC104
:101170009A01AD0188E0EA010990AE01E901099206
:101180009E018150C1F7E201898111969C918923CA
:10119000818308C1923009F407C112962D903C90CA
:1011A0001397EB018A819B811496AD90BD90CD90F1
:1011B000DC901797EC80FD800E811F819101281B28
:1011C000390BB90137FF04C066277727621B730B01
:1011D000603271050CF061C0121613066CF5370110
:1011E0004801062E04C096948794779467940A94D5
:1011F000D2F721E030E040E050E004C0220F331F7E
:10120000441F551F6A95D2F721503040404050404E
:101210002E213F2140235123211531054105510540
:1012200021F021E030E040E050E079018A01E62839
:10123000F728082919293CC0232BD1F1260E371E87
:1012400035014601062E04C09694879477946794DE
:101250000A94D2F721E030E040E050E004C0220FD1
:10126000331F441F551F6A95D2F72150304040402C
:1012700050402A213B214C215D212115310541059A
:10128000510521F021E030E040E050E059016A01D1
:10129000A628B728C828D9280BC0821593052CF09A
:1012A0001C01AA24BB24650103C0EE24FF2487018E
:1012B00011969C91D20111968C91981709F445C012
:1012C000992339F0A80197012A193B094C095D09B6
:1012D00006C0A60195012E193F09400B510B57FD81
:1012E00008C0118233822282248335834683578348
:1012F0001DC081E081833382228288279927DC0107
:10130000821B930BA40BB50B84839583A683B783B1
:101310000DC0220F331F441F551F2483358346837E
:1013200057838281938101979383828324813581BE
:1013300046815781DA01C9010197A109B1098F5F7F
:101340009F4FAF4FBF4328F30BC09183338222825C
:10135000EA0CFB1C0C1D1D1DE482F582068317831D
:1013600083E08083248135814681578157FF1AC0ED
:10137000C901AA2797FDA095BA2F81709070A0701F
:10138000B0705695479537952795822B932BA42BB4
:10139000B52B84839583A683B7838281938101963D
:1013A00093838283DF0101C0D201CD01CDB7DEB7C7
:1013B000E2E1DCC3A0E2B0E0EFEDF9E0C7C369838E
:1013C0007A838B839C832D833E834F835887E9E008
:1013D000EE2EF12CEC0EFD1ECE010196B70100D3CE
:1013E0008E010F5E1F4FCE010596B801F9D28A8992
:1013F00091E089278A8BC701B801AE01475E5F4F34
:101400008FDE19D2A096E6E0BDC3A0E2B0E0EAE02C
:10141000FAE09CC369837A838B839C832D833E830C
:101420004F835887F9E0EF2EF12CEC0EFD1ECE0114
:101430000196B701D5D28E010F5E1F4FCE010596E2
:10144000B801CED2C701B801AE01475E5F4F68DE7A
:10145000F2D1A096E6E096C3A0E2B0E0E1E3FAE0C4
:1014600069C369837A838B839C832D833E834F83F7
:101470005887CE010196BE01675F7F4FB1D2CE0182
:101480000596BE016F5E7F4FABD29985923088F092
:1014900089898230C8F0943019F4823051F404C044
:1014A000843029F4923081F489E091E0C6C0923012
:1014B00049F420E09A858A89981321E02A87CE0191
:1014C0000996BBC0823049F420E09A858A89981336
:1014D00021E02A8BCE014196B0C02D843E844F84FA
:1014E00058886D887E888F88988CEE24FF24870129
:1014F000AA24BB24650140E050E060E070E0E0E039
:10150000F0E0C10181709070892BE9F0E60CF71CC6
:10151000081D191D9A01AB012A0D3B1D4C1D5D1DB7
:1015200080E090E0A0E0B0E0E614F70408051905BB
:1015300020F481E090E0A0E0B0E0BA01A901480FFA
:10154000591F6A1F7B1FAA0CBB1CCC1CDD1C97FEFD
:1015500008C081E090E0A0E0B0E0A82AB92ACA2A39
:10156000DB2A3196E032F10549F0660C771C881CC5
:10157000991C5694479437942794C3CFFA85EA89E7
:101580002B893C898B859C85280F391F2E5F3F4F07
:1015900017C0CA0181709070892B61F0169507956C
:1015A000F794E79480E090E0A0E0B0E8E82AF92A18
:1015B0000A2B1B2B76956795579547952F5F3F4FC5
:1015C00077FDE7CF0CC0440F551F661F771F17FD2F
:1015D0004160EE0CFF1C001F111F215030404030B5
:1015E00090E0590790E0690790E4790760F32B8F4A
:1015F0003C8FDB01CA018F779070A070B07080348F
:101600009105A105B10561F447FD0AC0E114F1049B
:101610000105110529F0405C5F4F6F4F7F4F407807
:101620001A8EFE1711F081E08A8F4D8F5E8F6F8FBB
:1016300078A383E0898FCE014996FDD0A096E2E1A0
:1016400095C2A8E0B0E0E6E2FBE07DC29B01AC0100
:1016500083E08983DA01C9018827B7FD839599273B
:10166000AA27BB27B82E211531054105510519F4CC
:1016700082E0898339C08823A9F0203080E03807D0
:1016800080E0480780E8580729F460E070E080E0D7
:101690009FEC2EC0EE24FF248701E21AF30A040B0C
:1016A000150B02C079018A018EE1C82ED12CDC8293
:1016B000CB82ED82FE820F831887C801B7016CD000
:1016C00001971816190684F4082E04C0EE0CFF1CAE
:1016D000001F111F0A94D2F7ED82FE820F83188734
:1016E000C81AD90ADC82CB82BA82CE010196A3D075
:1016F0002896E9E044C2ACE0B0E0E0E8FBE02AC2B2
:1017000069837A838B839C83CE010196BE016B5FD4
:101710007F4F66D18D81823061F1823050F184300B
:1017200021F48E81882351F12EC02F81388537FD19
:1017300020C06E812F3131051CF06623F9F023C0E3
:101740008EE190E0821B930B29853A854B855C8561
:1017500004C056954795379527958A95D2F7662305
:10176000B1F050954095309521953F4F4F4F5F4FC9
:101770000EC020E030E040E050E009C02FEF3FEF26
:101780004FEF5FE704C020E030E040E050E8B901EF
:10179000CA012C96E2E0FAC1EF92FF920F931F93D9
:1017A0007B018C0180E0E81680E0F80681E0080704
:1017B00080E0180788F48FEFE816F10401051105A1
:1017C00031F028F088E090E0A0E0B0E017C080E0C1
:1017D00090E0A0E0B0E012C080E0E81680E0F806FB
:1017E00080E0080781E0180728F088E190E0A0E099
:1017F000B0E004C080E190E0A0E0B0E020E230E0A2
:1018000040E050E0281B390B4A0B5B0B04C01695D7
:101810000795F794E7948A95D2F7F701EF5EFE4FAC
:101820008081281B310941095109C9011F910F917C
:10183000FF90EF900895DF92EF92FF920F931F9326
:10184000FC01E480F58006811781D180808182309F
:1018500048F480E090E0A0E1B0E0E82AF92A0A2B01
:101860001B2BA5C0843009F49FC0823021F4EE24E4
:10187000FF24870105C0E114F1040105110519F4E5
:10188000E0E0F0E096C0628173819FEF62387907F3
:101890000CF05BC022E83FEF261B370B2A313105E5
:1018A0002CF020E030E040E050E02AC0B801A70171
:1018B000022E04C076956795579547950A94D2F7FE
:1018C00081E090E0A0E0B0E004C0880F991FAA1F5B
:1018D000BB1F2A95D2F70197A109B1098E219F213B
:1018E000A023B1230097A105B10521F081E090E08C
:1018F000A0E0B0E09A01AB01282B392B4A2B5B2BDF
:10190000DA01C9018F779070A070B07080349105B2
:10191000A105B10539F427FF09C0205C3F4F4F4FA7
:101920005F4F04C0215C3F4F4F4F5F4FE0E0F0E05E
:101930002030A0E03A07A0E04A07A0E45A0710F0E0
:10194000E1E0F0E079018A0127C06038710564F5B3
:10195000FB01E158FF4FD801C7018F779070A0704D
:10196000B07080349105A105B10539F4E7FE0DC0D2
:1019700080E490E0A0E0B0E004C08FE390E0A0E05D
:10198000B0E0E80EF91E0A1F1B1F17FF05C01695D1
:101990000795F794E794319687E016950795F794A5
:1019A000E7948A95D1F705C0EE24FF248701EFEF75
:1019B000F0E06E2F679566276795902F9F77D794F5
:1019C000DD24D7948E2F8695492F462B582F5D29DD
:1019D000B701CA011F910F91FF90EF90DF9008951A
:1019E000FC01DB01408151812281622F6F7770E021
:1019F000221F2227221F9381892F880F822B282FB5
:101A000030E0991F9927991F11969C9311972115E2
:101A10003105A9F5411551056105710511F482E003
:101A200037C082E89FEF13969C938E9312979A018A
:101A3000AB0167E0220F331F441F551F6A95D1F792
:101A400083E08C930DC0220F331F441F551F129645
:101A50008D919C911397019713969C938E93129757
:101A6000203080E0380780E0480780E4580758F3CA
:101A700014962D933D934D935C93179708952F3FA4
:101A8000310579F4411551056105710519F484E0BA
:101A90008C93089564FF03C081E08C9312C01C9264
:101AA00010C02F57304013963C932E93129783E02B
:101AB0008C9387E0440F551F661F771F8A95D1F7D7
:101AC000706414964D935D936D937C93179708956E
:101AD000DC0101C06D9341505040E0F70895629FD2
:101AE000D001739FF001829FE00DF11D649FE00D16
:101AF000F11D929FF00D839FF00D749FF00D659F77
:101B0000F00D9927729FB00DE11DF91F639FB00D75
:101B1000E11DF91FBD01CF0111240895991B79E042
:101B200004C0991F961708F0961B881F7A95C9F76D
:101B3000809508952F923F924F925F926F927F927D
:101B40008F929F92AF92BF92CF92DF92EF92FF92CD
:101B50000F931F93CF93DF93CDB7DEB7CA1BDB0B79
:101B60000FB6F894DEBF0FBECDBF09942A8839881E
:101B700048885F846E847D848C849B84AA84B98425
:101B8000C884DF80EE80FD800C811B81AA81B98131
:101B9000CE0FD11D0FB6F894DEBF0FBECDBFED0145
:061BA0000895F894FFCF48
:101BA60001010101320001060000000000000000F2
:101BB60000000102020303030304040404040404F2
:101BC60004050505050505050505050505050505C0
:101BD60005060606060606060606060606060606A0
:101BE600060606060606060606060606060606068F
:101BF6000607070707070707070707070707070770
:101C0600070707070707070707070707070707075E
:101C1600070707070707070707070707070707074E
:101C2600070707070707070707070707070707073E
:101C3600070808080808080808080808080808081F
:101C4600080808080808080808080808080808080E
:101C560008080808080808080808080808080808FE
:101C660008080808080808080808080808080808EE
:101C760008080808080808080808080808080808DE
:101C860008080808080808080808080808080808CE
:101C960008080808080808080808080808080808BE
:101CA60008080808080808080808080808080808AE
:021CB600080024
:00000001FF
