:1000000019C033C032C031C030C02FC02EC02DC087
:100010002CC02BC02AC041C428C027C026C025C080
:1000200024C023C0C4C221C020C01FC01EC01DC028
:100030001CC01BC011241FBECFEFD4E0DEBFCDBF5C
:1000400011E0A0E0B1E0E4E5FAE002C005900D9215
:10005000A430B107D9F711E0A4E0B1E001C01D92CE
:10006000A834B107E1F7D4D2F3C4CACFFC0192E0BF
:1000700020E007C080819827803109F498272F5FFE
:1000800031962617B8F383E18927089580910A01F4
:1000900090910901890F90910B01890F90910C01AA
:1000A000890F90910D01890F08959F92AF92BF9291
:1000B000CF92DF92EF92FF920F931F93DF93CF9334
:1000C00000D00F92CDB7DEB76C0110E09924939465
:1000D0005E010894A11CB11C8091C1008F778093B0
:1000E000C10090920E01C50161E070E043E050E074
:1000F000A8D4113011F4F8D302C08091C600823028
:1001000009F055C080E1E8D3FF2410E082E0E82E3A
:1001100080E197E2AAD3E8D3082FB3D390910E01E0
:10012000913041F5E02680E1F81619F00031A9F48C
:100130000DC0003179F48A81813041F489831A82BB
:100140008B83F601E10FF11DF0820EC019829A83B4
:100150009B830BC09A831B8203C099839A839B83E2
:10016000F601E10FF11D00831F5FF02E89818823C6
:1001700079F603C085E1B0D304C0F02E8B818823CB
:1001800039F680910E01813091F4033081F480E1E1
:1001900097E26BD3A9D3182F74D380910E018130CD
:1001A00031F41E1521F480E197D391E003C085E17D
:1001B00093D390E080910E0111E0882309F48CCF55
:1001C000992309F489CF8091C10080688093C10090
:1001D0000F900F900F90CF91DF911F910F91FF9093
:1001E000EF90DF90CF90BF90AF909F900895CF9207
:1001F000DF92EF92FF920F931F93CF93DF93D82E4E
:10020000E92EF62E85E0E9E0F1E0DF011D928A9506
:10021000E9F72D2D392FC901FC0120E092E007C03C
:1002200080819827803109F498272F5F31962F1508
:10023000B8F303E10927CC24C394C0920E01C09205
:10024000080182E049D380E197E20FD34DD3182F04
:1002500018D380910E01813009F07AC0103109F075
:100260006DC08091C10080688093C1002D2D3E2D0E
:10027000C901EC0110E011C080910801813079F4CE
:1002800088812AD38881803131F4809108018130BE
:1002900031F480E121D31F5F21961F1568F380910F
:1002A0000801813079F580E117D380910801813010
:1002B00049F583E011D380910801813019F58091CF
:1002C000C1008F778093C100802F06D380910801F1
:1002D0008130E9F480E197E2C8D206D3182FD1D259
:1002E00080910E01813041F41031B1F080910A010A
:1002F0008F5F80930A0110C080910B018F5F809304
:100300000B010AC08091C1008F778093C10080915A
:100310000C018F5F80930C0180910A01909109017B
:10032000890F90910B01890F90910C01890F909189
:100330000D01890F863091F481E01BC0123011F459
:1003400082E017C0809109018F5F80930901E4CF9B
:1003500080910D018F5F80930D01DECF80910E01A2
:10036000882309F46ACF80910801882309F465CFB6
:1003700080E0DF91CF911F910F91FF90EF90DF9080
:10038000CF90089587E690E094D261D285E0E9E0CD
:10039000F1E0DF011D928A95E9F708950F931F930D
:1003A000182F41D0082F882319F08DD0299A12C018
:1003B0008CEA91D082E08FD086D080E395E70197D8
:1003C000F1F7812F56D08EEE86D07DD080EF95E567
:1003D0000197F1F7802F1F910F9108950F931F93AD
:1003E000CF93DF93082FEB011ED0182F6CD0112371
:1003F00011F081E00DC0802F3CD08AEA6CD0802FB4
:100400008F5F5FD07AD0888382D089835CD080E090
:10041000DF91CF911F910F9108951092B90080E262
:100420008093B8000895982F84EA8093BC0080914F
:10043000BC0087FFFCCF8091B900887F883021F015
:10044000803111F081E008959093BB0084E880939F
:10045000BC008091BC0087FFFCCF9091B900987FD1
:10046000983111F480E0089580E0903409F081E043
:100470000895982F44EA34E824E94093BC00809121
:10048000BC0087FFFCCF8091B900887F883011F0D5
:10049000803199F79093BB003093BC008091BC00F1
:1004A00087FFFCCF8091B900887F803211F08835BA
:1004B00039F42093BC008091BC0084FDFCCFDDCFDB
:1004C0000895B1DF089584E98093BC008091BC0059
:1004D00084FDFCCF08958093BB0084E88093BC002A
:1004E0008091BC0087FFFCCF8091B90090E0887FAD
:1004F000883209F091E0892F089584EC8093BC0044
:100500008091BC0087FFFCCF8091BB00089584E8F8
:100510008093BC008091BC0087FFFCCF8091BB0022
:1005200008956F3F49F04F3F39F080931801609371
:10053000190140931A0106C0109218011092190176
:1005400010921A018091C1008F778093C1001092A0
:100550002B0188E191E063E04ADE80931E0181E097
:1005600080932B018091C10080688093C100089521
:10057000F894209A219A529A539A549A2898519A08
:10058000589A109233011092340110923501109252
:1005900036011092370141DFF5DEE1ECF0E08081B9
:1005A0008068808381E080932B01789408951F9266
:1005B0000F920FB60F9211242F933F934F935F9397
:1005C0006F937F938F939F93AF93BF93EF93FF931B
:1005D00080912B01882319F41092080108C0813002
:1005E00031F483E391E061DD299A10923701FF91A4
:1005F000EF91BF91AF919F918F917F916F915F919B
:100600004F913F912F910F900FBE0F901F90189513
:100610000F931F93CF93DF93ABDF80E9BFDE80930F
:100620001A0182E9BBDE8093410184E9B7DE809341
:100630002C01C8ECD0E01FEF01E08091330188234A
:1006400009F051C08CED95E0FE013197F1F701976B
:10065000D9F780913A01882389F480E96FE071E04D
:10066000BDDE80932101882379F580910F0180936D
:10067000150180911001809344012AC0813089F4D2
:1006800082E96FE071E0AADE809321018823E1F422
:1006900080910F0180932201809110018093450188
:1006A00017C08230A9F484E96FE071E097DE80938F
:1006B0002101882349F480910F01809343018091A7
:1006C00010018093460104C010931501109344015A
:1006D00080913A018F5F80933A01833009F0ADCF6A
:1006E00010923A01AACF803629F4609129014091F5
:1006F0002D019CC0803729F460911B0140913F017E
:1007000095C0813729F460911D01409147018EC049
:10071000803839F46091060160933C011092170112
:1007200084C0813861F48091070180933C0110926C
:10073000170181E86091250140913B0177C0803429
:1007400041F46091440140911501EBDE5A9A5B98A7
:1007500009C0813449F46091450140912201E1DEF4
:100760005A985B9A5C9863C0823449F46091460160
:1007700040914301D6DE5A985B985C9A58C0833406
:1007800029F460913E014091400150C0843429F425
:10079000609138014091240149C0853429F4609169
:1007A000310140911C0142C0863429F4609120013E
:1007B00040911F013BC0873429F46091280140918A
:1007C000230134C0803529F460911601409139012C
:1007D0002DC0813529F4609126014091320126C057
:1007E000823529F460912E0140912A011FC0833582
:1007F00029F4609142014091300118C0803921F400
:100800000093010160EA11C0813921F410920101C5
:1008100061EA0BC0823921F40093020162EA05C04B
:10082000833929F41092020163EA40E07ADE90E015
:1008300007C0E92FF0E0ED5CFE4F818180839F5F70
:100840009530B8F390932F0110923701F6CEE1E87E
:10085000F0E0808188608083EFE6F0E08081826054
:10086000808381E080930E010895F894909389002D
:10087000809388007894E1E8F0E08081856080834F
:100880000895E1E8F0E080818D7F8083F8941092F4
:10089000850010928400789408951F920F920FB6ED
:1008A0000F92112410920E010F900FBE0F901F9007
:1008B00018959093C5008093C40082E08093C00097
:1008C000E1ECF0E080818861808386E08093C20063
:1008D00081E0809308010895982F8091C00085FFE2
:1008E000FCCF9093C60008958091C00087FD04C09E
:1008F00080910E018130C1F38091C00087FD02C05C
:1009000080E008958091C6000895FC0190E012C037
:100910008091C00087FD04C080910E018130C1F339
:100920008091C00087FD02C080E002C08091C600B7
:1009300081939F5F961760F308959C01DC010D90F1
:100940000020E9F71197A81BB90B90E00AC0E20F4D
:10095000F31F40818091C00085FFFCCF4093C6000B
:100960009F5FE92FF0E0EA17FB0788F30895ECE7B3
:10097000F0E0808180648083EAE7F0E08081856830
:100980008083EEE7F0E08081806380830895EAE76A
:10099000F0E08081806480830895EAE7F0E0808160
:1009A0008F7B80830895813039F0813058F0823018
:1009B00029F0833039F404C081E605C082E603C023
:1009C00083E601C080E680937C00089584B5826050
:1009D00084BD80EA87BDEEE6F0E08081826080839E
:1009E000089585B5856085BD089585B58A7F85BDE7
:1009F0000895E0EBF0E080818260808380EA80935C
:100A0000B300E0E7F0E08081826080830895E1EB4D
:100A1000F0E08081856080830895E1EBF0E08081E3
:100A20008A7F80830895E9E6F0E080818F6080838B
:100A30000895E89A0895E99A0895E8980895E9983C
:100A40000895DC0101C06D9341505040E0F70895D6
:040A5000F894FFCF48
:040A5400010101009B
:00000001FF
