:1000000019C033C032C031C030C02FC02EC02DC087
:100010002CC02BC02AC029C028C027C026C025C09C
:1000200024C023C0B2C021C020C01FC01EC01DC03C
:100030001CC01BC011241FBECFEFD4E0DEBFCDBF5C
:1000400011E0A0E0B1E0E6E6F3E002C005900D9219
:10005000A036B107D9F711E0A0E6B1E001C01D92CA
:10006000AA36B107E1F7DCD07CC1CACF1092B90043
:1000700080E28093B8000895982F84EA8093BC00B2
:100080008091BC0087FFFCCF8091B900887F8830C9
:1000900021F0803111F081E008959093BB0084E855
:1000A0008093BC008091BC0087FFFCCF9091B90089
:1000B000987F983111F480E0089580E0903409F041
:1000C00081E00895982F44EA34E824E94093BC0085
:1000D0008091BC0087FFFCCF8091B900887F883079
:1000E00011F0803199F79093BB003093BC00809160
:1000F000BC0087FFFCCF8091B900887F803211F06F
:10010000883539F42093BC008091BC0084FDFCCF7D
:10011000DDCF0895B1DF089584E98093BC0080911C
:10012000BC0084FDFCCF08958093BB0084E88093DD
:10013000BC008091BC0087FFFCCF8091B90090E0AB
:10014000887F883209F091E0892F089584EC8093AC
:10015000BC008091BC0087FFFCCF8091BB0008955C
:1001600084E88093BC008091BC0087FFFCCF809125
:10017000BB000895F894209A219A289877DF83E3AA
:1001800090E074D09CD0789408951F920F920FB68F
:100190000F9211242F933F934F935F936F937F930D
:1001A0008F939F93AF93BF93EF93FF938091C6007C
:1001B00080936001813649F480E091E075D08091B0
:1001C000610163D0809162010AC0823651F480E2FD
:1001D00091E06AD08091630158D08091640155D03C
:1001E0000CC0833649F480E491E05ED080916501D3
:1001F0004CD080916601F3CF000010926001FF9116
:10020000EF91BF91AF919F918F917F916F915F918E
:100210004F913F912F910F900FBE0F901F90189507
:10022000A9DF80E97ED08093670182E97AD080934C
:10023000690184E976D08093680180916701882301
:1002400021F480E961E671E046D08091690188235C
:1002500021F482E961E671E03ED080916801882353
:1002600061F784E961E671E036D0E7CF9093C5008D
:100270008093C400E1ECF0E0808188618083E2EC4F
:10028000F0E08081866080830895982F8091C0007F
:1002900085FFFCCF9093C60008958091C00087FF32
:1002A000FCCF8091C6000895FC0191918091C0001F
:1002B00085FFFCCF9093C6009923B9F70895E1EC30
:1002C000F0E08081806880830895E1ECF0E0808137
:1002D0008F77808308951F93CF93DF93182FEB01BF
:1002E000F1DE8AEA21DF812F8F5F14DF103929F4D4
:1002F0002DDF888335DF89830FC0123929F426DF8B
:100300008A832EDF8B8308C0143929F41FDF8C8386
:1003100027DF8D8301C00000FFDEDF91CF911F91A9
:1003200008950F931F93182FA7DE082F882319F025
:10033000F3DE299A12C08CEAF7DE82E0F5DEECDE0D
:1003400080E395E70197F1F7812FBCDE8EEEECDEBE
:10035000E3DE80EF95E50197F1F7802F1F910F9174
:060360000895F894FFCFA0
:100366000C44656D616E646520542063617074652C
:10037600757220310D5265706F6E7365203A2000DC
:100386000C44656D616E646520542063617074650C
:10039600757220320D5265706F6E7365203A2000BB
:1003A6000C44656D616E64652054206361707465EC
:1003B600757220330D5265706F6E7365203A20009A
:00000001FF
