:1000000019C033C032C031C030C02FC093C52DC01D
:100010002CC02BC02AC020C528C027C026C025C0A0
:1000200024C023C088C221C020C01FC01EC01DC064
:100030001CC01BC011241FBECFEFD4E0DEBFCDBF5C
:1000400012E0A0E0B1E0E6EFF9E102C005900D9208
:10005000AE30B107D9F712E0AEE0B2E001C01D92B8
:10006000A336B107E1F7ABD2C4CCCACFFC0192E012
:1000700020E007C080819827803109F498272F5FFE
:1000800031962617B8F383E18927089580911402E9
:1000900090911302890F90911502890F9091160289
:1000A000890F90911702890F08959F92AF92BF9286
:1000B000CF92DF92EF92FF920F931F93DF93CF9334
:1000C00000D00F92CDB7DEB76C0110E09924939465
:1000D0005E010894A11CB11C8091C1008F778093B0
:1000E000C10090921802C50161E070E043E050E069
:1000F00079DC113011F4D7D402C08091C60082306F
:1001000009F055C080E1C7D4FF2410E082E0E82E5A
:1001100080E593EC89D4C7D4082F92D4909118022B
:10012000913041F5E02680E1F81619F00031A9F48C
:100130000DC0003179F48A81813041F489831A82BB
:100140008B83F601E10FF11DF0820EC019829A83B4
:100150009B830BC09A831B8203C099839A839B83E2
:10016000F601E10FF11D00831F5FF02E89818823C6
:1001700079F603C085E18FD404C0F02E8B818823EB
:1001800039F680911802813091F4033081F480E5D2
:1001900093EC4AD488D4182F53D48091180281301C
:1001A00031F41E1521F480E176D491E003C085E19D
:1001B00072D490E08091180211E0882309F48CCF6A
:1001C000992309F489CF8091C10080688093C10090
:1001D0000F900F900F90CF91DF911F910F91FF9093
:1001E000EF90DF90CF90BF90AF909F900895CF9207
:1001F000DF92EF92FF920F931F93CF93DF937C01D7
:10020000062F85E0E3E1F2E0DF011D928A95E9F730
:10021000C7012CDFD82ECC24C394C0921802C09200
:10022000120282E038D480E593ECFED33CD4182F40
:1002300007D480911802813009F077C0103109F09D
:100240006AC08091C10080688093C100E70110E01E
:1002500011C080911202813079F488811CD4888188
:10026000803131F480911202813031F480E113D475
:100270001F5F2196101768F380911202813079F583
:1002800080E109D480911202813049F583E003D4E2
:1002900080911202813019F58091C1008F7780938F
:1002A000C1008D2DF8D3809112028130E9F480E5F0
:1002B00093ECBAD3F8D3182FC3D3809118028130AE
:1002C00041F41031B1F0809114028F5F80931402D9
:1002D00010C0809115028F5F809315020AC0809133
:1002E000C1008F778093C100809116028F5F809349
:1002F00016028091140290911302890F90911502B9
:10030000890F90911602890F90911702890F8630FC
:1003100091F481E01BC0123011F482E017C080918B
:1003200013028F5F80931302E4CF809117028F5FD7
:1003300080931702DECF80911802882309F46DCFD5
:1003400080911202882309F468CF80E0DF91CF9179
:100350001F910F91FF90EF90DF90CF90089587E667
:1003600090E086D353D385E0E3E1F2E0DF011D9214
:100370008A95E9F708951092B90080E28093B80059
:100380000895982F84EA8093BC008091BC0087FF79
:10039000FCCF8091B900887F883021F0803111F046
:1003A00081E008959093BB0084E88093BC00809125
:1003B000BC0087FFFCCF9091B900987F983111F471
:1003C00080E0089580E0903409F081E00895982F4E
:1003D00044EA34E824E94093BC008091BC0087FFE4
:1003E000FCCF8091B900887F883011F0803199F777
:1003F0009093BB003093BC008091BC0087FFFCCF82
:100400008091B900887F803211F0883539F42093CB
:10041000BC008091BC0084FDFCCFDDCF0895B1DF2E
:10042000089584E98093BC008091BC0084FDFCCFDA
:1004300008958093BB0084E88093BC008091BC0049
:1004400087FFFCCF8091B90090E0887F883209F067
:1004500091E0892F089584EC8093BC008091BC00CA
:1004600087FFFCCF8091BB00089584E88093BC0097
:100470008091BC0087FFFCCF8091BB000895FF9264
:100480000F931F93162F042FF090030191E0F9169C
:10049000D9F480932002409321026093220280913C
:1004A000C1008F778093C1001092320280E292E007
:1004B00063E09DDE80932502F09232028091C100BC
:1004C00080688093C10005C0E6D2812FE4D2802FDE
:1004D000E2D21F910F91FF900895F894519A589A83
:1004E000E9E3F2E0119282E0E235F807D9F743DF61
:1004F00036DF8091C10080688093C10081E08093E5
:100500003202D8D380E0F6D389E192E0E7D389E1E3
:1005100092E06FE172E040E050E08CD490912002D4
:1005200080E020911F02820F911D90935A028093C8
:100530005902789408951F920F920FB60F921124CA
:100540002F933F934F935F936F937F938F939F93DB
:10055000AF93BF93EF93FF9380910301813079F4C0
:1005600080913202882319F41092120217C0813050
:10057000A9F489E392E099DD109251020FC08091B5
:100580000F02909110022091C600FC01E75CFD4F24
:10059000208301969093100280930F02FF91EF91B8
:1005A000BF91AF919F918F917F916F915F914F918B
:1005B0003F912F910F900FBE0F901F9018950F93A2
:1005C0001F938BDF80E9E4D282E9E2D284E9E0D2B2
:1005D00086E9DED288E9DCD28AE9DAD28CE9D8D29F
:1005E0008EE9D6D280E8EFD31FEF01E08091390287
:1005F000882309F409C2823509F475C1833540F5B1
:10060000843409F4DCC0853480F4813409F489C071
:10061000823420F4803409F0DBC169C0823409F4EB
:100620009AC0833409F0D4C1B0C0873409F415C12D
:10063000883438F4853409F4DCC0863409F0C8C144
:10064000F2C0803509F423C1813509F0C1C137C139
:10065000803809F440C0813878F4803609F457C1F5
:10066000813620F4833509F0B3C189C18037B1F0F8
:10067000813709F0ADC126C0813909F499C18239A9
:1006800030F4813871F1803909F0A2C18CC182390E
:1006900009F493C1833909F09BC194C180E869E1F1
:1006A00072E0A7D3882329F489E192E055D380939F
:1006B0002A0240912A0240935B021092220280E7B4
:1006C00060E007C0109362021093240281E76FEF8D
:1006D0004FEFD5DE7EC110931E021093560280E8C4
:1006E000F6CF1093550210932C0281E8F0CF80E9E9
:1006F00069E172E060D2882329F010931F02109301
:10070000200205C089E192E06FE172E074D240916D
:100710001F0240931C026091200260935F0280E4FC
:10072000D8CF82E969E172E046D2882329F010939C
:100730001F021093200205C089E192E06FE172E090
:100740005AD240911F024093280260912002609388
:10075000600281E4BECF84E969E172E02CD2882393
:1007600029F010931F021093200205C089E192E046
:100770006FE172E040D240911F0240935E026091AF
:1007800020026093610282E4A4CF86E969E172E00D
:1007900012D2882329F010931F021093200205C063
:1007A00089E192E06FE172E026D240911F0240930E
:1007B0005C02609120026093580283E48ACF88E94A
:1007C00069E172E0F8D1882329F010931F02109399
:1007D000200205C089E192E06FE172E00CD2409105
:1007E0001F0240932B02609120026093520284E426
:1007F00070CF8AE969E172E0DED1882329F0109395
:100800001F021093200205C089E192E06FE172E0BF
:10081000F2D140911F024093230260912002609325
:10082000370285E456CF8CE969E172E0C4D18823B0
:1008300029F010931F021093200205C089E192E075
:100840006FE172E0D8D140911F024093260260917F
:1008500020026093270286E43CCF8EE969E172E0D2
:10086000AAD1882329F010931F021093200205C0FB
:1008700089E192E06FE172E0BED140911F024093A6
:1008800029026091200260932F0287E422CF80E04A
:1008900031D289E192E022D24091590250915A021C
:1008A00089E192E06FE172E0C5D260911F0260932E
:1008B0001D02409120024093530280E50ACF81E05F
:1008C00019D289E192E00AD289E192E06FE172E007
:1008D0000DD360911F0260932D024091200240933E
:1008E000380281E5F6CE82E005D289E192E0F6D1C8
:1008F00089E192E06FE172E0F9D260911F026093AA
:100900003402409120024093310282E5E2CE81E040
:10091000F1D189E192E0E2D189E192E06FE172E008
:10092000E5D280911F0280932D0280912002809356
:10093000380282E0DFD189E192E0D0D189E192E012
:100940006FE172E0D3D290911F02909334028091B4
:1009500020028093310240912D0250E0BA01690FCC
:10096000711D759567956093300280913802480F2C
:10097000511D559547954093330280E6AACE83E0FA
:10098000B9D189E192E0AAD189E192E06FE172E008
:10099000ADD260911F0260935D02409120024093AE
:1009A000360283E596CE0093010180E960EA0EC02D
:1009B0001092010181E961EA09C00093020182E914
:1009C00062EA04C01092020183E963EA40E081CE4A
:1009D00000001092350290E007C0E92FF0E0E75CDC
:1009E000FD4F818180839F5F9931B8F390933502E9
:1009F0001092510280910F029091100201979093F2
:100A0000100280930F02F2CD0000F0CDE1E8F0E09B
:100A1000808188608083EFE6F0E08081826080835F
:100A200081E0809318020895F89490938900809350
:100A300088007894E1E8F0E0808185608083089503
:100A4000E1E8F0E080818D7F8083F894109285004A
:100A500010928400789408951F920F920FB60F920F
:100A60001124109218020F900FBE0F901F9018952E
:100A70009093C5008093C40082E08093C000E1ECB5
:100A8000F0E080818861808386E08093C20081E00D
:100A9000809312020895982F8091C00085FFFCCFAB
:100AA0009093C60008958091C00087FD04C0809196
:100AB00018028130C1F38091C00087FD02C080E040
:100AC00008958091C60008950F931F93CF93DF93ED
:100AD000062FEC0110E003C0E6DF89931F5F1017BB
:100AE000D8F3DF91CF911F910F9108959C01DC0104
:100AF0000D900020E9F71197A81BB90B90E00AC0F0
:100B0000E20FF31F40818091C00085FFFCCF40932E
:100B1000C6009F5FE92FF0E0EA17FB0788F308950E
:100B2000F894A895E0E6F0E088E1808381E6808390
:100B3000789408951F920F920FB60F9211248F93FD
:100B40009F93F8948091040190910501892B89F07D
:100B5000A89588E18093600081E680936000809191
:100B60000401909105010197909305018093040180
:100B700007C0A89588E18093600088E080936000BA
:100B800078949F918F910F900FBE0F901F901895A2
:100B90001F93F7DB182F882311F043DC09C081E095
:100BA00048DC80E246DC3DDC80E395E70197F1F725
:100BB000812F1F9108950F931F93CF93DF93182FC9
:100BC000EB01DFDB082F2DDC002369F4812FFFDB35
:100BD00080E02FDC812F8F5F22DC3DDC888345DCC9
:100BE00089831FDC02C018821982802FDF91CF9188
:100BF0001F910F910895FC01DB01408147FD03C067
:100C000020E030E003C0419520E830E0818190E0B1
:100C1000807C90708038910549F0803C910549F0C6
:100C20008034910541F4275E3F4F05C02E5C3F4F55
:100C300002C0255B3F4F4C9311962C930895DC0125
:100C4000FB018C916AE08BD6805D81838C9187D685
:100C5000905D928311968C91119790E08F779070B0
:100C60008931910579F08A3191051CF4892B41F085
:100C700013C08233910541F08B34910569F408C0AB
:100C800080E30BC082E305C085E3838380E306C075
:100C900087E3838385E302C085E28383848311969F
:100CA0008C9180788083803811F48DE201C080E2DD
:100CB00080830895ECE7F0E0808180628083EAE73A
:100CC000F0E08081876880830895EAE7F0E0808122
:100CD0008061808380818F7B80830895FC01809177
:100CE0007A0084FFFCCF8091780080838091790026
:100CF00081830895882339F480917E0081608093F8
:100D00007E0080E208C0813049F480917E008260DC
:100D100080937E0081E280937C0013C0823039F49E
:100D200080917E00846080937E0082E2F4CF8330E5
:100D300039F480917E00886080937E0083E2EBCF5F
:100D4000000080917A00806480937A008091640032
:100D50008E7F809364000895FC01708160E0882795
:100D600077FD8095982F2181620F711D811D911D46
:100D70006C7F2DE730E040E050E0D2D5BC01882701
:100D80009927262F2650273B08F02258822F0895B6
:100D9000282FFB016AE0E3D5805D8083822FDFD5B9
:100DA000905D918308951F93ECDA182F882311F03A
:100DB00038DB02C08EEF3DDB80E395E70197F1F76A
:100DC000812F1F9108951F93182FEDDF812FD9DAFE
:100DD000182F882311F025DB09C086EE2ADB83E07B
:100DE00028DB1FDB80E395E70197F1F7812F1F9147
:100DF00008950F931F93CF93DF93182FEB01C1DA60
:100E0000082F0FDB002379F4812FE1DA85EE11DB67
:100E1000812F8F5FDCDA1FDB88831DDB898325DB75
:100E20008A83FFDA01C01882802FDF91CF911F9152
:100E30000F910895CF92DF92EF92FF920F931F933D
:100E4000CF93DF93FC01EB016A01808161818823EC
:100E500029F4662381F4188219823FC0262F30E0DE
:100E6000220F331F220F331F82958695869583703C
:100E7000280F311D06C0262F30E0220F331F220F0E
:100E8000331FB901882777FD8095982F02D326E676
:100E900038E84FE150E408D27B018C01B601882785
:100EA00077FD8095982FF5D29B01AC01C801B70161
:100EB000A9D149D39B0177FD06C06883872F992765
:100EC00087FD9A9509C088279927821B930B8883F1
:100ED000892F990F990B80588983DF91CF911F91AA
:100EE0000F91FF90EF90DF90CF900895CF93DF9315
:100EF000FC01EB0140816181442369F0262F30E041
:100F0000220F331F220F331F42954695469543709B
:100F1000240F311D06C0262F30E0220F331F220F71
:100F2000331FB901882777FD8095982FB2D22EE024
:100F30003EEB48E85FE3B8D12CED36EB40EA53E4F2
:100F400061D101D39B0177FD06C06883872F992764
:100F500087FD9A9509C088279927821B930B888360
:100F6000892F990F990B80588983DF91CF9108952C
:100F7000A0E0B0E0EDEBF7E0FEC4DC012B01FA01EC
:100F80009C91923008F439C1EB018881823008F4D9
:100F900033C1943069F4843009F02FC111969C91CB
:100FA00011978981981709F428C1A6E0B1E025C1FD
:100FB000843009F421C18230A9F4923009F01DC1B6
:100FC0009A01AD0188E0EA010990AE01E9010992B8
:100FD0009E018150C1F7E201898111969C9189237C
:100FE000818308C1923009F407C112962D903C907C
:100FF0001397EB018A819B811496AD90BD90CD90A3
:10100000DC901797EC80FD800E811F819101281BD9
:10101000390BB90137FF04C066277727621B730BB2
:10102000603271050CF061C0121613066CF53701C1
:101030004801062E04C096948794779467940A9486
:10104000D2F721E030E040E050E004C0220F331F2F
:10105000441F551F6A95D2F7215030404040504000
:101060002E213F21402351232115310541055105F2
:1010700021F021E030E040E050E079018A01E628EB
:10108000F728082919293CC0232BD1F1260E371E39
:1010900035014601062E04C0969487947794679490
:1010A0000A94D2F721E030E040E050E004C0220F83
:1010B000331F441F551F6A95D2F7215030404040DE
:1010C00050402A213B214C215D212115310541054C
:1010D000510521F021E030E040E050E059016A0183
:1010E000A628B728C828D9280BC0821593052CF04C
:1010F0001C01AA24BB24650103C0EE24FF24870140
:1011000011969C91D20111968C91981709F445C0C3
:10111000992339F0A80197012A193B094C095D0967
:1011200006C0A60195012E193F09400B510B57FD32
:1011300008C01182338222822483358346835783F9
:101140001DC081E081833382228288279927DC01B8
:10115000821B930BA40BB50B84839583A683B78363
:101160000DC0220F331F441F551F24833583468330
:101170005783828193810197938382832481358170
:1011800046815781DA01C9010197A109B1098F5F31
:101190009F4FAF4FBF4328F30BC09183338222820E
:1011A000EA0CFB1C0C1D1D1DE482F58206831783CF
:1011B00083E08083248135814681578157FF1AC09F
:1011C000C901AA2797FDA095BA2F81709070A070D1
:1011D000B0705695479537952795822B932BA42B66
:1011E000B52B84839583A683B783828193810196EF
:1011F00093838283DF0101C0D201CD01CDB7DEB779
:10120000E2E1D5C3A0E2B0E0E7E0F9E0C0C3698362
:101210007A838B839C832D833E834F835887E9E0B9
:10122000EE2EF12CEC0EFD1ECE010196B70100D37F
:101230008E010F5E1F4FCE010596B801F9D28A8943
:1012400091E089278A8BC701B801AE01475E5F4FE5
:101250008FDE19D2A096E6E0B6C3A0E2B0E0E2E3EA
:10126000F9E095C369837A838B839C832D833E83C6
:101270004F835887F9E0EF2EF12CEC0EFD1ECE01C6
:101280000196B701D5D28E010F5E1F4FCE01059694
:10129000B801CED2C701B801AE01475E5F4F68DE2C
:1012A000F2D1A096E6E08FC3A0E2B0E0E9E5F9E074
:1012B00062C369837A838B839C832D833E834F83B0
:1012C0005887CE010196BE01675F7F4FB1D2CE0134
:1012D0000596BE016F5E7F4FABD29985923088F044
:1012E00089898230C8F0943019F4823051F404C0F6
:1012F000843029F4923081F486E091E0C6C09230C7
:1013000049F420E09A858A89981321E02A87CE0142
:101310000996BBC0823049F420E09A858A899813E7
:1013200021E02A8BCE014196B0C02D843E844F84AB
:1013300058886D887E888F88988CEE24FF248701DA
:10134000AA24BB24650140E050E060E070E0E0E0EA
:10135000F0E0C10181709070892BE9F0E60CF71C78
:10136000081D191D9A01AB012A0D3B1D4C1D5D1D69
:1013700080E090E0A0E0B0E0E614F704080519056D
:1013800020F481E090E0A0E0B0E0BA01A901480FAC
:10139000591F6A1F7B1FAA0CBB1CCC1CDD1C97FEAF
:1013A00008C081E090E0A0E0B0E0A82AB92ACA2AEB
:1013B000DB2A3196E032F10549F0660C771C881C77
:1013C000991C5694479437942794C3CFFA85EA8999
:1013D0002B893C898B859C85280F391F2E5F3F4FB9
:1013E00017C0CA0181709070892B61F0169507951E
:1013F000F794E79480E090E0A0E0B0E8E82AF92ACA
:101400000A2B1B2B76956795579547952F5F3F4F76
:1014100077FDE7CF0CC0440F551F661F771F17FDE0
:101420004160EE0CFF1C001F111F21503040403066
:1014300090E0590790E0690790E4790760F32B8FFB
:101440003C8FDB01CA018F779070A070B070803440
:101450009105A105B10561F447FD0AC0E114F1044D
:101460000105110529F0405C5F4F6F4F7F4F4078B9
:101470001A8EFE1711F081E08A8F4D8F5E8F6F8F6D
:1014800078A383E0898FCE014996FDD0A096E2E152
:101490008EC2A8E0B0E0EEE4FAE076C29B01AC01B7
:1014A00083E08983DA01C9018827B7FD83959927ED
:1014B000AA27BB27B82E211531054105510519F47E
:1014C00082E0898339C08823A9F0203080E0380782
:1014D00080E0480780E8580729F460E070E080E089
:1014E0009FEC2EC0EE24FF248701E21AF30A040BBE
:1014F000150B02C079018A018EE1C82ED12CDC8245
:10150000CB82ED82FE820F831887C801B7016CD0B1
:1015100001971816190684F4082E04C0EE0CFF1C5F
:10152000001F111F0A94D2F7ED82FE820F831887E5
:10153000C81AD90ADC82CB82BA82CE010196A3D026
:101540002896E9E03DC2ACE0B0E0E8EAFAE023C268
:1015500069837A838B839C83CE010196BE016B5F86
:101560007F4F66D18D81823061F1823050F18430BD
:1015700021F48E81882351F12EC02F81388537FDCB
:1015800020C06E812F3131051CF06623F9F023C095
:101590008EE190E0821B930B29853A854B855C8513
:1015A00004C056954795379527958A95D2F76623B7
:1015B000B1F050954095309521953F4F4F4F5F4F7B
:1015C0000EC020E030E040E050E009C02FEF3FEFD8
:1015D0004FEF5FE704C020E030E040E050E8B901A1
:1015E000CA012C96E2E0F3C1EF92FF920F931F9392
:1015F0007B018C0180E0E81680E0F80681E00807B6
:1016000080E0180788F48FEFE816F1040105110552
:1016100031F028F088E090E0A0E0B0E017C080E072
:1016200090E0A0E0B0E012C080E0E81680E0F806AC
:1016300080E0080781E0180728F088E190E0A0E04A
:10164000B0E004C080E190E0A0E0B0E020E230E053
:1016500040E050E0281B390B4A0B5B0B04C0169589
:101660000795F794E7948A95D2F7F701E25FFE4F6A
:101670008081281B310941095109C9011F910F912E
:10168000FF90EF900895DF92EF92FF920F931F93D8
:10169000FC01E480F58006811781D1808081823051
:1016A00048F480E090E0A0E1B0E0E82AF92A0A2BB3
:1016B0001B2BA5C0843009F49FC0823021F4EE2496
:1016C000FF24870105C0E114F1040105110519F497
:1016D000E0E0F0E096C0628173819FEF62387907A5
:1016E0000CF05BC022E83FEF261B370B2A31310597
:1016F0002CF020E030E040E050E02AC0B801A70123
:10170000022E04C076956795579547950A94D2F7AF
:1017100081E090E0A0E0B0E004C0880F991FAA1F0C
:10172000BB1F2A95D2F70197A109B1098E219F21EC
:10173000A023B1230097A105B10521F081E090E03D
:10174000A0E0B0E09A01AB01282B392B4A2B5B2B90
:10175000DA01C9018F779070A070B0708034910564
:10176000A105B10539F427FF09C0205C3F4F4F4F59
:101770005F4F04C0215C3F4F4F4F5F4FE0E0F0E010
:101780002030A0E03A07A0E04A07A0E45A0710F092
:10179000E1E0F0E079018A0127C06038710564F565
:1017A000FB01E158FF4FD801C7018F779070A070FF
:1017B000B07080349105A105B10539F4E7FE0DC084
:1017C00080E490E0A0E0B0E004C08FE390E0A0E00F
:1017D000B0E0E80EF91E0A1F1B1F17FF05C0169583
:1017E0000795F794E794319687E016950795F79457
:1017F000E7948A95D1F705C0EE24FF248701EFEF27
:10180000F0E06E2F679566276795902F9F77D794A6
:10181000DD24D7948E2F8695492F462B582F5D298E
:10182000B701CA011F910F91FF90EF90DF900895CB
:10183000FC01DB01408151812281622F6F7770E0D2
:10184000221F2227221F9381892F880F822B282F66
:1018500030E0991F9927991F11969C931197211594
:101860003105A9F5411551056105710511F482E0B5
:1018700037C082E89FEF13969C938E9312979A013C
:10188000AB0167E0220F331F441F551F6A95D1F744
:1018900083E08C930DC0220F331F441F551F1296F7
:1018A0008D919C911397019713969C938E93129709
:1018B000203080E0380780E0480780E4580758F37C
:1018C00014962D933D934D935C93179708952F3F56
:1018D000310579F4411551056105710519F484E06C
:1018E0008C93089564FF03C081E08C9312C01C9216
:1018F00010C02F57304013963C932E93129783E0DD
:101900008C9387E0440F551F661F771F8A95D1F788
:10191000706414964D935D936D937C93179708951F
:10192000629FD001739FF001829FE00DF11D649FC3
:10193000E00DF11D929FF00D839FF00D749FF00D4F
:10194000659FF00D9927729FB00DE11DF91F639FF0
:10195000B00DE11DF91FBD01CF0111240895991BA0
:1019600079E004C0991F961708F0961B881F7A9596
:10197000C9F7809508952F923F924F925F926F9290
:101980007F928F929F92AF92BF92CF92DF92EF920F
:10199000FF920F931F93CF93DF93CDB7DEB7CA1B90
:1019A000DB0B0FB6F894DEBF0FBECDBF09942A88BB
:1019B000398848885F846E847D848C849B84AA8463
:1019C000B984C884DF80EE80FD800C811B81AA81F0
:1019D000B981CE0FD11D0FB6F894DEBF0FBECDBFBB
:1019E000ED010895DC0101C06D9341505040E0F7D6
:0619F0000895F894FFCFFA
:1019F60001010101060000000000000000000001D6
:101A06000202030303030404040404040404050596
:101A1600050505050505050505050505050506066E
:101A26000606060606060606060606060606060650
:101A3600060606060606060606060606060607073E
:101A46000707070707070707070707070707070720
:101A56000707070707070707070707070707070710
:101A66000707070707070707070707070707070700
:101A760007070707070707070707070707070808EE
:101A860008080808080808080808080808080808D0
:101A960008080808080808080808080808080808C0
:101AA60008080808080808080808080808080808B0
:101AB60008080808080808080808080808080808A0
:101AC6000808080808080808080808080808080890
:101AD6000808080808080808080808080808080880
:101AE6000808080808080808080808080808080870
:0E1AF600080808080808080808080808080872
:00000001FF
