:1000000019C033C032C031C030C02FC02EC02DC087
:100010002CC02BC02AC0E5C128C027C026C025C0DF
:1000200024C023C042C021C020C01FC01EC01DC0AC
:100030001CC01BC011241FBECFEFD4E0DEBFCDBF5C
:1000400011E0A0E0B1E0E0E7F5E002C005900D921C
:10005000A230B107D9F711E0A2E0B1E001C01D92D2
:10006000A433B107E1F72CD281C2CACFFC0192E0E0
:1000700020E007C080819827803109F498272F5FFE
:1000800031962617B8F383E18927089580910701F7
:1000900090910601890F90910801890F90910901B3
:1000A000890F90910A01890F08951F920F920FB640
:1000B0000F921124109205010F900FBE0F901F9008
:1000C00018959F92AF92BF92CF92DF92EF92FF92DC
:1000D0000F931F93DF93CF9300D00F92CDB7DEB76E
:1000E0006C01992493945E010894A11CB11C909218
:1000F0000B01C50161E070E043E050E030D298D1DF
:10010000823009F057C080E18BD1FF2410E082E0FB
:10011000E82E80E197E24DD18BD1082F56D19091F6
:100120000B01913051F5E02680E1F81619F000310D
:10013000B9F40FC0003189F48A81813051F4898388
:100140001A828B83F601E10FF11DF0821A3080F4E0
:100150000EC019829A839B830BC09A831B8203C0B3
:1001600099839A839B83F601E10FF11D00831F5F42
:10017000F02E8981882369F603C085E151D104C03E
:10018000F02E8B81882329F680910B01813091F428
:10019000033081F480E197E20CD14AD1182F15D1B8
:1001A00080910B01813031F41E1521F480E138D1AA
:1001B00091E003C085E134D190E080910B01882368
:1001C00009F495CF992309F492CF0F900F900F90D7
:1001D000CF91DF911F910F91FF90EF90DF90CF9023
:1001E000BF90AF909F900895CF92DF92EF92FF92D1
:1001F0000F931F93CF93DF93D82EE92EF62E85E031
:10020000E6E0F1E0DF011D928A95E9F72D2D392F07
:10021000C901FC0120E092E007C08081982780316D
:1002200009F498272F5F31962F15B8F303E10927BA
:10023000CC24C394C0920B01C092050182E0F0D09F
:1002400080E197E2B6D0F4D0182FBFD080910B0197
:10025000813009F07AC0103109F06DC08091C10081
:1002600080688093C1002D2D3E2DC901EC0110E066
:1002700011C080910501813079F48881D1D08881C5
:10028000803131F480910501813031F480E1C8D0B2
:100290001F5F21961F1568F380910501813079F564
:1002A00080E1BED080910501813049F583E0B8D06E
:1002B00080910501813019F58091C1008F7780937D
:1002C000C100802FADD0809105018130E9F480E13B
:1002D00097E26FD0ADD0182F78D080910B0181308C
:1002E00041F41031B1F0809107018F5F80930701D5
:1002F00010C0809108018F5F809308010AC080912F
:10030000C1008F778093C100809109018F5F809336
:1003100009018091070190910601890F90910801D0
:10032000890F90910901890F90910A01890F8630F8
:1003300091F481E01BC0123011F482E017C080916B
:1003400006018F5F80930601E4CF80910A018F5FE1
:1003500080930A01DECF80910B01882309F46ACFD4
:1003600080910501882309F465CF80E0DF91CF916A
:100370001F910F91FF90EF90DF90CF90089587E647
:1003800090E03BD008D085E0E6E0F1E0DF011D928F
:100390008A95E9F70895E1E8F0E08081886080833C
:1003A000EFE6F0E080818260808381E080930B0142
:1003B0000895F89490938900809388007894E1E8F8
:1003C000F0E08081826080830895E1E8F0E0808140
:1003D0008D7F8083F8941092850010928400789429
:1003E00008951F920F920FB60F92112410920B01D5
:1003F0000F900FBE0F901F9018959093C50080939B
:10040000C40082E08093C000E1ECF0E0808188616C
:10041000808386E08093C20081E080930501089587
:10042000982F8091C00085FFFCCF9093C60008955F
:100430008091C00087FD04C080910B018130C1F321
:100440008091C6000895FC0190E00CC08091C0002E
:1004500087FD04C080910B018130C1F38091C600FB
:1004600081939F5F961790F308959C01DC010D9096
:100470000020E9F71197A81BB90B90E00AC0E20F22
:10048000F31F40818091C00085FFFCCF4093C600E0
:100490009F5FE92FF0E0EA17FB0788F30895F894CF
:1004A000209A219A529A539A549A559A28985C986D
:1004B0005B985A98229A519A589A61DF78940895D5
:1004C000FF920F931F93EBDF82E4F82E01E410E418
:1004D000309B3AC0809104018130C9F580910301BD
:1004E000882359F4109320011093210180E291E0B8
:1004F00061E07ADE5A9A5B980CC0813061F4009317
:1005000020010093210180E291E061E06DDE5A98C4
:100510005B9A5C980DC0823059F4F0922001F09201
:10052000210180E291E061E05FDE5A985B985C9A7D
:10053000809103018F5F80930301833011F4109247
:1005400003011092040103C081E0809304018091B3
:10055000C00087FFBDCF8CE091E0B3DDB9CFDC01F7
:1005600001C06D9341505040E0F70895F894FFCFDB
:100570000100FFCF0100FFFFFFFFFFFFFFFFFFFFB5
:10058000FFFFFFFFFFFFFFFFFFFFFFFFFFFFFFFF7B
:10059000FFFFFFFFFFFFFFFFFFFFFFFFFFFFFFFF6B
:1005A000FFFFFFFFFFFFFFFFFFFFFFFFFFFFFFFF5B
:1005B000FFFFFFFFFFFFFFFFFFFFFFFFFFFFFFFF4B
:00000001FF
