:1000000019C033C032C031C030C02FC02EC02DC087
:100010002CC02BC02AC029C028C027C026C025C09C
:1000200024C023C0B2C021C020C01FC01EC01DC03C
:100030001CC01BC011241FBECFEFD4E0DEBFCDBF5C
:1000400013E0A0E0B1E0E4EBF7E002C005900D9210
:10005000A434B107D9F713E0A4E4B3E001C01D92C2
:10006000AF35B107E1F770D1A3C3CACF1092B90081
:1000700080E28093B8000895982F84EA8093BC00B2
:100080008091BC0087FFFCCF8091B900887F8830C9
:1000900021F0803111F081E008959093BB0084E855
:1000A0008093BC008091BC0087FFFCCF9091B90089
:1000B000987F983111F480E0089580E0903409F041
:1000C00081E00895982F44EA34E824E94093BC0085
:1000D0008091BC0087FFFCCF8091B900887F883079
:1000E00011F0803199F79093BB003093BC00809160
:1000F000BC0087FFFCCF8091B900887F803211F06F
:10010000883539F42093BC008091BC0084FDFCCF7D
:10011000DDCF0895B1DF089584E98093BC0080911C
:10012000BC0084FDFCCF08958093BB0084E88093DD
:10013000BC008091BC0087FFFCCF8091B90090E0AB
:10014000887F883209F091E0892F089584EC8093AC
:10015000BC008091BC0087FFFCCF8091BB0008955C
:1001600084E88093BC008091BC0087FFFCCF809125
:10017000BB000895F894209A219A289877DF83E3AA
:1001800090E069D1A2D1789408951F920F920FB692
:100190000F9211242F933F934F935F936F937F930D
:1001A0008F939F93AF93BF93EF93FF938091C6007C
:1001B000809344038533E1F1863370F48233F1F0A8
:1001C000833320F4813309F059C010C0833301F127
:1001D000843309F053C024C08733D1F1873380F1D1
:1001E0008833F1F1883609F049C042C080E966E4FD
:1001F00073E08AD180935D0381E007C082E966E401
:1002000073E082D18093510382E08093450336C02E
:1002100084E966E473E078D18093530383E0F5CFFB
:1002200086E966E473E070D18093540384E0EDCFF7
:1002300088E966E473E068D18093500385E0E5CFF8
:100240008AE966E473E060D180934A0386E0DDCFFB
:100250008CE966E473E058D18093490387E0D5CFF9
:100260008EE966E473E050D18093520388E0CDCFED
:1002700080E86DE473E08ED180935E039091440337
:10028000892F8153883078F586E493E06BE473E03E
:1002900005D28BE493E067E573E024D284E5E9D0EE
:1002A00087EAE7D080E091E0F3D080914503805D5C
:1002B000E0D08AE091E0ECD080915703DAD08091D1
:1002C0005803D7D080915903D4D08EE2D2D08091F8
:1002D0005A03CFD080915B03CCD0E5D01092460377
:1002E0001092470320C09836E8F08DE493E073D174
:1002F00080935C0365E573E086D185E2BAD088E43B
:10030000B8D08EE091E0C4D080915503B2D08091F6
:100310005603AFD0C8D010924D0310924E031092E6
:100320004F0301C00000FF91EF91BF91AF919F91EA
:100330008F917F916F915F914F913F912F910F908E
:100340000FBE0F901F90189515DF89E191E0BAD08C
:100350008AE491E0B7D0A7D080E9C3D080935D0351
:10036000882319F087E791E002C086E991E0AAD0DE
:1003700082E9B7D080935103882319F08BEA91E08A
:1003800002C08AEC91E09ED084E9ABD08093530305
:10039000882319F08FED91E002C08EEF91E092D0AA
:1003A00086E99FD080935403882319F083E192E07B
:1003B00002C082E392E086D088E993D08093500314
:1003C000882319F087E492E002C086E692E07AD0B2
:1003D0008AE987D080934A03882319F08BE792E05B
:1003E00002C08AE992E06ED08CE97BD08093490309
:1003F000882319F08FEA92E002C08EEC92E062D07E
:100400008EE96FD080935203882319F083EE92E037
:1004100002C082E093E056D080E8A6D080935E03CD
:10042000882319F087E193E002C082E393E04AD089
:1004300028EC30E0289A80ED97E0F9013197F1F748
:100440000197D9F7289880ED97E0F9013197F1F7F6
:100450000197D9F7EFCF85E38093C400E1ECF0E09A
:10046000808188618083E2ECF0E080818660808317
:100470000895982F8091C00085FFFCCF9093C6000F
:1004800008958091C00087FFFCCF8091C600089539
:10049000FC0191918091C00085FFFCCF9093C60034
:1004A0009923B9F708958091C00085FFFCCF8DE0B6
:1004B0008093C6008091C00085FFFCCF8AE08093C6
:1004C000C6000895E5DFEFDF0895E1ECF0E08081FC
:1004D000806880830895E1ECF0E080818F778083ED
:1004E00008951F93C9DD182F882311F015DE09C068
:1004F00081E01ADE80E218DE0FDE80E395E70197E7
:10050000F1F7812F1F9108950F931F93CF93DF93DE
:10051000182FEB01B1DD082FFFDD002369F4812FD7
:10052000D1DD80E001DE812F8F5FF4DD0FDE888377
:1005300017DE8983F1DD02C018821982802FDF91D6
:10054000CF911F910F9108951F9396DD182F882347
:1005500011F0E2DD02C08EEFE7DD80E395E7019761
:10056000F1F7812F1F9108951F93182FEDDF812F31
:1005700083DD182F882311F0CFDD09C086EED4DD8E
:1005800083E0D2DDC9DD80E395E70197F1F7812FA4
:100590001F9108950F931F93CF93DF93182FEB01B3
:1005A0006BDD082FB9DD002379F4812F8BDD85EE1B
:1005B000BBDD812F8F5F86DDC9DD8883C7DD898341
:1005C000CFDD8A83A9DD01C01882802FDF91CF9112
:1005D0001F910F910895FC01708160E0882777FDDD
:1005E0008095982F2181620F711D811D911D2DE72E
:1005F00030E040E050E0B1D0DC01CB01CD01AA27D2
:10060000BB2786500895282FFB016AE0C5D0805D86
:100610008083822FC1D0905D918308950F931F93A3
:10062000182F2ADD082F882319F076DD299A12C0A9
:100630008CEA7ADD82E078DD6FDD80E395E7019773
:10064000F1F7812F3FDD8EEE6FDD66DD80EF95E502
:100650000197F1F7802F1F910F9108950F931F932A
:10066000CF93DF93182FEB0107DD082F55DD002313
:1006700069F4812F27DD8AEA57DD812F8F5F4ADDFC
:1006800065DD88836DDD898347DD02C018821982AC
:10069000802FDF91CF911F910F910895FC01DB0115
:1006A000408147FD03C020E030E003C0419520E8D1
:1006B00030E0818190E0807C90708038910549F035
:1006C000803C910549F08034910541F4275E3F4F0D
:1006D00005C02E5C3F4F02C0255B3F4F4C931196E7
:1006E0002C930895DC01FB018C916AE055D0805D6C
:1006F00081838C9151D0905D928311968C9111974A
:1007000090E08F7790708931910579F08A31910569
:100710001CF4892B41F013C08233910541F08B34D6
:10072000910569F408C080E30BC082E305C085E34E
:10073000838380E306C087E3838385E302C085E289
:100740008383848311968C9180788083803811F420
:100750008DE201C080E280830895629FD001739F83
:10076000F001829FE00DF11D649FE00DF11D929F4D
:10077000F00D839FF00D749FF00D659FF00D99278C
:10078000729FB00DE11DF91F639FB00DE11DF91FB0
:10079000BD01CF0111240895991B79E004C0991F70
:1007A000961708F0961B881F7A95C9F780950895CB
:0407B000F894FFCFEB
:1007B400432053656E736F722000203A200020534B
:1007C400656E736F72203A2000202F3D3D205765DF
:1007D4006C636F6D6520696E2074686520493243CF
:1007E400206275732074657374657220736F667408
:1007F40077617265203D3D5C200020202020204D43
:100804004132454E20323031322D3230313320489E
:1008140072642076312E302E30202D2053667420C1
:1008240076312E322E3100445337353035206E3137
:1008340020636F6E6E656374696F6E206572726F8C
:10084400722021212100445337353035206E312068
:10085400636F6E6E65637465642E00445337353080
:1008640035206E3220636F6E6E656374696F6E201F
:100874006572726F7220212121004453373530355F
:10088400206E3220636F6E6E65637465642E00445F
:100894005337353035206E3320636F6E6E65637465
:1008A400696F6E206572726F72202121210044539A
:1008B40037353035206E3320636F6E6E6563746533
:1008C400642E00445337353035206E3420636F6E08
:1008D4006E656374696F6E206572726F7220212178
:1008E4002100445337353035206E3420636F6E6EEB
:1008F40065637465642E00445337353035206E3596
:1009040020636F6E6E656374696F6E206572726FBB
:10091400722021212100445337353035206E352093
:10092400636F6E6E65637465642E004453373530AF
:1009340035206E3620636F6E6E656374696F6E204A
:100944006572726F7220212121004453373530358E
:10095400206E3620636F6E6E65637465642E00448A
:100964005337353035206E3720636F6E6E65637490
:10097400696F6E206572726F7220212121004453C9
:1009840037353035206E3720636F6E6E656374655E
:10099400642E00445337353035206E3820636F6E33
:1009A4006E656374696F6E206572726F72202121A7
:1009B4002100445337353035206E3820636F6E6E16
:1009C40065637465642E00534854323120636F6E3E
:1009D4006E656374696F6E206572726F7220212177
:1009E4002100534854323120636F6E6E6563746521
:0409F400642E00006D
:00000001FF
