:1000000061C07BC07AC079C078C077C076C075C047
:1000100074C073C072C071C070C06FC06EC06DC05C
:100020006CC06BC0EFC069C068C067C066C065C007
:1000300064C063C04DC158C164C16FC17AC185C17C
:1000400090C19BC1A6C1DAC1D9C1D8C1D7C1D6C19F
:10005000D5C1D4C1D3C1D2C1D1C1D0C1CFC1CEC10C
:10006000CDC1CCC1CBC1CAC1C9C1C8C1C7C1C6C13C
:10007000C5C1C4C1C3C1C2C1C1C1C0C1BFC1BEC16C
:10008000BDC1BCC1BBC1BAC1B9C1B8C1B7C1B6C19C
:10009000B5C1B4C19BC19CC19DC19EC19FC1A0C13E
:1000A000A1C1A2C1A3C1A8C1A9C1A8C1A7C187C13B
:1000B0007CC180C1A3C1A2C1A2C1A0C19FC19EC178
:1000C0009DC182C111241FBECFEFD4E0DEBFCDBFE2
:1000D00014E0A0E0B1E0E2E2FCE002C005900D9285
:1000E000A632B107D9F714E0A6E2B4E001C01D9230
:1000F000A934B107E1F7BDD092C582CF1092B90003
:1001000080E28093B8000895982F84EA8093BC0021
:100110008091BC0087FFFCCF8091B900887F883038
:1001200021F0803111F081E008959093BB0084E8C4
:100130008093BC008091BC0087FFFCCF9091B900F8
:10014000987F983111F480E0089580E0903409F0B0
:1001500081E00895982F44EA34E824E94093BC00F4
:100160008091BC0087FFFCCF8091B900887F8830E8
:1001700011F0803199F79093BB003093BC008091CF
:10018000BC0087FFFCCF8091B900887F803211F0DE
:10019000883539F42093BC008091BC0084FDFCCFED
:1001A000DDCF0895B1DF089584E98093BC0080918C
:1001B000BC0084FDFCCF08958093BB0084E880934D
:1001C000BC008091BC0087FFFCCF8091B90090E01B
:1001D000887F883209F091E0892F089584EC80931C
:1001E000BC008091BC0087FFFCCF8091BB000895CC
:1001F00084E88093BC008091BC0087FFFCCF809195
:10020000BB0008951F920F920FB60F9211248F9387
:10021000EF93FF9380912704843111F41092270407
:10022000E0912704F0E08091C600EF5CFB4F8083F3
:10023000809127048F5F80932704809129048F5F2A
:100240008093290481E080932604FF91EF918F91A0
:100250000F900FBE0F901F901895F894209A219A36
:1002600028984CDF83E390E0D7D010D17894AFD3B7
:100270000895CF93DF93F1DFDAD3C8ECD0E0289A6A
:1002800080ED97E0FE013197F1F70197D9F72898B3
:1002900080ED97E0FE013197F1F70197D9F7809152
:1002A0002604813061F7B0C0E091270480912904D1
:1002B000F0E0E81BF109EF5CFB4F808190E0FC016E
:1002C000F197E834F10508F099C0E65EFF4F099414
:1002D00080E96BE274E0F9D0282F8093450481E037
:1002E0006BE274E041E30BC082E96BE274E0EDD0B5
:1002F000282F8093450482E06BE274E042E3F7D25A
:100300007EC084E96BE274E0E0D0282F809345043E
:1003100083E06BE274E043E3F2CF86E96BE274E0E2
:10032000D4D0282F8093450484E06BE274E044E34A
:10033000E6CF88E96BE274E0C8D0282F80934504AB
:1003400085E06BE274E045E3DACF8AE96BE274E0C2
:10035000BCD0282F8093450486E06BE274E046E32E
:10036000CECF8CE96BE274E0B0D0282F80934504A7
:1003700087E06BE274E047E3C2CF8EE96BE274E0A2
:10038000A4D0282F8093450488E06BE274E048E312
:10039000B6CF80E86EE274E0DED0482F809345044B
:1003A0008EE294E069E360D22AC0809148046FE64F
:1003B00030D225C086E494E060E793D120C08091DC
:1003C0002D046EE6F7D11BC0BBD319C080E90FC066
:1003D00082E90DC084E90BC086E909C088E907C03D
:1003E0008AE905C08CE903C08EE901C080E8FDD22E
:1003F00080934504B2D103C0FFD201C0DDD2809109
:10040000290481508093290480912904882309F0CC
:100410004BCF1092270433CF85E38093C400E1ECE7
:10042000F0E0808188618083E2ECF0E0808186608A
:1004300080830895982F8091C00085FFFCCF909312
:10044000C60008958091C00087FFFCCF8091C60050
:100450000895FC0191918091C00085FFFCCF90939D
:10046000C6009923B9F708958091C00085FFFCCF9D
:100470008DE08093C6008091C00085FFFCCF8AE0AC
:100480008093C6000895E5DFEFDF0895E1ECF0E02A
:100490008081806880830895E1ECF0E080818F772F
:1004A000808308951F9330DE182F882311F07CDE9F
:1004B00009C081E081DE80E27FDE76DE80E395E7C1
:1004C0000197F1F7812F1F9108950F931F93CF93F9
:1004D000DF93182FEB0118DE082F66DE002369F486
:1004E000812F38DE80E068DE812F8F5F5BDE76DE75
:1004F00088837EDE898358DE02C018821982802FAD
:10050000DF91CF911F910F9108951F93FDDD182F5B
:10051000882311F049DE02C08EEF4EDE80E395E7BE
:100520000197F1F7812F1F9108951F93182FEDDF89
:10053000812FEADD182F882311F036DE09C086EE00
:100540003BDE83E039DE30DE80E395E70197F1F7AB
:10055000812F1F9108950F931F93CF93DF93182F2F
:10056000EB01D2DD082F20DE002379F4812FF2DDAC
:1005700085EE22DE812F8F5FEDDD30DE88832EDE7B
:10058000898336DE8A8310DE01C01882802FDF91D6
:10059000CF911F910F910895FC01708160E0882731
:1005A00077FD8095982F2181620F711D811D911D0E
:1005B0006C7F2DE730E040E050E006D3BC01882797
:1005C0009927262F2650273B08F02258822F08957E
:1005D000282FFB016AE017D3805D8083822F13D31D
:1005E000905D91830895FC01DB01408147FD03C0CC
:1005F00020E030E003C0419520E830E0818190E0C8
:10060000807C90708038910549F0803C910549F0DC
:100610008034910541F4275E3F4F05C02E5C3F4F6B
:1006200002C0255B3F4F4C9311962C930895DC013B
:10063000FB018C916AE0E7D2805D81838C91E3D2EB
:10064000905D928311968C91119790E08F779070C6
:100650008931910579F08A3191051CF4892B41F09B
:1006600013C08233910541F08B34910569F408C0C1
:1006700080E30BC082E305C085E3838380E306C08B
:1006800087E3838385E302C085E2838384831196B5
:100690008C9180788083803811F48DE201C080E2F3
:1006A00080830895DF93CF9300D00F92CDB7DEB74C
:1006B0001B82982F9F70A6E1B4E0FD01E90FF11DA8
:1006C00090819A8382958F70A80FB11D8C91898338
:1006D000CE010196BEDE0F900F900F90CF91DF916B
:1006E00008951F93DF93CF9300D000D000D0CDB7F3
:1006F000DEB7162F8DE0898381E38A8380912A04F7
:100700008823A9F0CE010196BE016D5F7F4F43D2D1
:1007100080E091E09EDE8B818DDE8C818BDE8EE22F
:1007200089DE8D8187DE8E8185DE9EDE0CC082E0D3
:1007300081DE83E07FDE812F7DDE89817BDE8A8121
:1007400079DE83E077DE26960FB6F894DEBF0FBE23
:10075000CDBFCF91DF911F910895982F80912A04EA
:10076000882351F0992319F08DE091E002C088E2CE
:1007700091E06FDE79DE0895992311F08FEF01C0CB
:100780008EEF58DE08951F93182F80912A04882336
:1007900039F08CE391E05DDE812F84DF65DE08C0F7
:1007A00082E048DE81E046DE812F44DE83E042DEE7
:1007B0001F9108951F93DF93CF9300D00F92CDB771
:1007C000DEB7162F80912A04882381F08DE7BE01C1
:1007D0006F5F7F4FCDD186E591E03BDE89812ADED8
:1007E0008A8128DE8B8126DE3FDE0CC082E022DE9D
:1007F00083E020DE812F1EDE8DE71CDE80E01ADE26
:1008000083E018DE0F900F900F90CF91DF911F9132
:1008100008951F93DF93CF9300D0CDB7DEB7162F87
:1008200080912A04882371F085E0BE016F5F7F4FBD
:1008300094D183E691E00DDE8981FCDD8A81FADDC9
:1008400013DE0CC082E0F6DD83E0F4DD812FF2DD03
:1008500085E0F0DD80E0EEDD83E0ECDD0F900F90D1
:10086000CF91DF911F910895DF92EF92FF920F9346
:100870001F93DF93CF9300D0CDB7DEB77C01D62E88
:10088000042F8ADE182F80912A04882391F0812F6B
:10089000BE016F5F7F4F9CDE85E2CCDD88E4CADD60
:1008A00080E791E0D6DD8981C5DD8A81C3DDDCDDAD
:1008B00010C0002311F01FEF0FEF82E0BBDD83E0DB
:1008C000B9DD8D2DB7DD812FB5DD802FB3DD83E060
:1008D000B1DDF7011082118212820F900F90CF913B
:1008E000DF911F910F91FF90EF90DF900895BF92DD
:1008F000CF92DF92EF92FF920F931F93DF93CF93EC
:10090000CDB7DEB727970FB6F894DEBF0FBECDBFC9
:10091000B82E7B01C42ED22ECB018E010F5F1F4F4C
:10092000B80161DE80912A04882301F1C801BE016B
:100930006D5F7F4F7CDE84E57DDD87EA7BDD8BE7C5
:1009400091E087DD8B2D805D75DD85E891E081DDAF
:100950008B8170DD8C816EDD8D816CDD8EE26ADDD8
:100960008E8168DD8F8166DD7FDD13C0DD2021F0A3
:100970008FEF89838A8301C0000082E05BDD83E022
:1009800059DD8C2D57DD898155DD8A8153DD83E06A
:1009900051DDF7011082118227960FB6F894DEBF61
:1009A0000FBECDBFCF91DF911F910F91FF90EF90C0
:1009B000DF90CF90BF90089580912A04882321F082
:1009C00089E891E060DD089580E034DD089580914C
:1009D0002A04882341F08DE991E055DD8EEC91E009
:1009E00052DD42DD0895000008951F938DDB182F1E
:1009F000DBDB812F1F9108951F9380912A048823A8
:100A000019F080E092E03FDD10E0812FEEDF8823D7
:100A100011F4812FB8DE1E5F1E3FB9F780912A04C2
:100A2000882319F088E292E02EDD1F91089580E975
:100A300039DD982F80912A04882341F0992319F0F9
:100A40008AE492E002C089E692E01DDD82E92ADDB7
:100A5000982F80912A04882341F0992319F08EE77A
:100A600092E002C08DE992E00EDD84E91BDD982F53
:100A700080912A04882341F0992319F082EB92E0B7
:100A800002C081ED92E0FFDC86E90CDD982F8091B9
:100A90002A04882341F0992319F086EE92E002C0DF
:100AA00085E093E0F0DC88E9FDDC982F80912A0452
:100AB000882341F0992319F08AE193E002C089E389
:100AC00093E0E1DC8AE9EEDC982F80912A04882308
:100AD00041F0992319F08EE493E002C08DE693E093
:100AE000D2DC8CE9DFDC982F80912A04882341F046
:100AF000992319F082E893E002C081EA93E0C3DC15
:100B00008EE9D0DC982F80912A04882341F0992324
:100B100019F086EB93E002C085ED93E0B4DC80E849
:100B200004DD982F80912A04882349F0992321F02D
:100B30008AEE93E0A8DC089585E094E0A4DC0895B3
:100B400080912A04882319F010922A04089581E0E4
:100B500080932A043CDF6BDF0895282FFB016AE0B5
:100B600052D0805D8083822F4ED0905D9183089516
:100B7000282FFB0164E647D0805D8083822F43D01D
:100B8000292F892F6AE03FD0805D8183822F3BD05F
:100B9000905D92830895FC01DB0180816AE033D08F
:100BA000805D8C9380812FD0905D11969C931197DE
:100BB000818129D0805D12968C931297818123D0F8
:100BC000905D13969C930895629FD001739FF001EE
:100BD000829FE00DF11D649FE00DF11D929FF00DCD
:100BE000839FF00D749FF00D659FF00D9927729F04
:100BF000B00DE11DF91F639FB00DE11DF91FBD018F
:100C0000CF0111240895991B79E004C0991F96170C
:100C100008F0961B881F7A95C9F780950895F89477
:020C2000FFCF04
:100C220056312053656E736F72203A20002053654F
:100C32006E736F72206E6F7420636F6E6E65637475
:100C420065642021212120002053656E736F72207C
:100C5200636F6E6E65637465642E20002053656E4B
:100C6200736F7220666F756E6420617420616464B4
:100C720072657373200044312053656E736F722066
:100C82003A200041312053656E736F72203A200082
:100C92002053656E736F72203A2000432053656EB5
:100CA200736F722000203A200020556E6B6E6F77B2
:100CB2006E20636F6D6D616E6420212000202F3DD8
:100CC2003D2057656C636F6D6520696E20746865A1
:100CD20020493243206275732074657374657220F3
:100CE200736F667477617265203D3D5C2000205C05
:100CF2003D3D204D4132454E20323031322D323091
:100D0200313320204872642076312E3362202D2028
:100D12005366742076312E322E3132203D3D2F0023
:100D2200202D2D2D20426567696E6E696E67206FDA
:100D3200662073656E736F7220646574656374698F
:100D42006F6E202D2D2D2000202D2D2D20456E641F
:100D5200206F662073656E736F72206465746563BD
:100D620074696F6E202D2D2D200044533735303598
:100D7200206E3120636F6E6E656374696F6E2065DD
:100D820072726F7220212121004453373530352091
:100D92006E3120636F6E6E65637465642E0044531A
:100DA20037353035206E3220636F6E6E656374693D
:100DB2006F6E206572726F722021212100445337B9
:100DC200353035206E3220636F6E6E6563746564F4
:100DD2002E00445337353035206E3320636F6E6EEC
:100DE200656374696F6E206572726F7220212121B2
:100DF20000445337353035206E3320636F6E6E6595
:100E0200637465642E00445337353035206E3420C8
:100E1200636F6E6E656374696F6E206572726F7256
:100E22002021212100445337353035206E34206390
:100E32006F6E6E65637465642E00445337353035CA
:100E4200206E3520636F6E6E656374696F6E206508
:100E520072726F72202121210044533735303520C0
:100E62006E3520636F6E6E65637465642E00445345
:100E720037353035206E3620636F6E6E6563746968
:100E82006F6E206572726F722021212100445337E8
:100E9200353035206E3620636F6E6E65637465641F
:100EA2002E00445337353035206E3720636F6E6E17
:100EB200656374696F6E206572726F7220212121E1
:100EC20000445337353035206E3720636F6E6E65C0
:100ED200637465642E00445337353035206E3820F4
:100EE200636F6E6E656374696F6E206572726F7286
:100EF2002021212100445337353035206E382063BC
:100F02006F6E6E65637465642E00534854323120EF
:100F1200636F6E6E656374696F6E206572726F7255
:100F22002021212100534854323120636F6E6E65B7
:100F3200637465642E0030313233343536373839D4
:060F420041424344454614
:00000001FF
