:1000000019C033C032C031C030C02FC02EC02DC087
:100010002CC02BC02AC029C028C027C026C025C09C
:1000200024C023C0A7C021C020C01FC01EC01DC047
:100030001CC01BC011241FBECFEFD4E0DEBFCDBF5C
:1000400014E0A0E0B1E0EEE5FAE002C005900D9208
:10005000A030B107D9F714E0A0E0B4E001C01D92D0
:10006000AF31B107E1F7BDD0F8C4CACF1092B900E3
:1000700080E28093B8000895982F84EA8093BC00B2
:100080008091BC0087FFFCCF8091B900887F8830C9
:1000900021F0803111F081E008959093BB0084E855
:1000A0008093BC008091BC0087FFFCCF9091B90089
:1000B000987F983111F480E0089580E0903409F041
:1000C00081E00895982F44EA34E824E94093BC0085
:1000D0008091BC0087FFFCCF8091B900887F883079
:1000E00011F0803199F79093BB003093BC00809160
:1000F000BC0087FFFCCF8091B900887F803211F06F
:10010000883539F42093BC008091BC0084FDFCCF7D
:10011000DDCF0895B1DF089584E98093BC0080911C
:10012000BC0084FDFCCF08958093BB0084E88093DD
:10013000BC008091BC0087FFFCCF8091B90090E0AB
:10014000887F883209F091E0892F089584EC8093AC
:10015000BC008091BC0087FFFCCF8091BB0008955C
:1001600084E88093BC008091BC0087FFFCCF809125
:10017000BB0008951F920F920FB60F9211248F9318
:10018000EF93FF9380910104843111F410920104E4
:10019000E0910104F0E08091C600E65FFB4F8083B0
:1001A000809101048F5F80930104809103048F5F2D
:1001B0008093030481E080930004FF91EF918F917D
:1001C0000F900FBE0F901F901895F894209A219AC7
:1001D00028984CDF83E390E00AD143D178944CD344
:1001E0000895CF93DF93F1DF77D3C8ECD0E0289A5E
:1001F00080ED97E0FE013197F1F70197D9F7289844
:1002000080ED97E0FE013197F1F70197D9F78091E2
:100210000004813061F7E3C0E091010480910304A0
:10022000F0E0E81BF109E65FFB4FE081E13609F4FD
:10023000B8C0E23610F5E53309F475C0E63380F452
:10024000E23309F44BC0E33320F4E13309F0C1C0D9
:1002500039C0E33309F44FC0E43309F0BAC057C0E2
:10026000E73309F478C0E73308F469C0E83309F4E8
:100270007EC0E93309F0ADC086C0E63609F49BC004
:10028000E73668F4E33609F490C0E33608F48BC02F
:10029000E43609F48CC0E53609F09BC08AC0E93623
:1002A00009F48FC0EA3638F4E73609F486C0E83638
:1002B00009F08FC084C0EA3609F489C0E83709F034
:1002C00088C06DC080E965E074E0EAD0282F809393
:1002D0001E0481E065E074E041E30BC082E965E063
:1002E00074E0DED0282F80931E0482E065E074E085
:1002F00042E352D26FC084E965E074E0D1D0282F88
:1003000080931E0483E065E074E043E3F2CF86E966
:1003100065E074E0C5D0282F80931E0484E065E07A
:1003200074E044E3E6CF88E965E074E0B9D0282FB3
:1003300080931E0485E065E074E045E3DACF8AE946
:1003400065E074E0ADD0282F80931E0486E065E060
:1003500074E046E3CECF8CE965E074E0A1D0282FAD
:1003600080931E0487E065E074E047E3C2CF8EE926
:1003700065E074E095D0282F80931E0488E065E046
:1003800074E048E3B6CF80E867E074E0CFD0482F50
:1003900080931E0487E094E069E38ED11BC025D3CF
:1003A00019C080E90FC082E90DC084E90BC086E95D
:1003B00009C088E907C08AE905C08CE903C08EE955
:1003C00001C080E867D280931E04B9D103C069D20E
:1003D00001C047D28091030481508093030480912F
:1003E0000304882309F018CF1092010400CF85E39D
:1003F0008093C400E1ECF0E0808188618083E2ECCE
:10040000F0E08081866080830895982F8091C000FD
:1004100085FFFCCF9093C60008958091C00087FFB0
:10042000FCCF8091C6000895FC0191918091C0009D
:1004300085FFFCCF9093C6009923B9F7089580916A
:10044000C00085FFFCCF8DE08093C6008091C00086
:1004500085FFFCCF8AE08093C6000895E5DFEFDFDB
:100460000895E1ECF0E08081806880830895E1ECFC
:10047000F0E080818F77808308951F93FDDD182F32
:10048000882311F049DE09C081E04EDE80E24CDEB7
:1004900043DE80E395E70197F1F7812F1F910895DF
:1004A0000F931F93CF93DF93182FEB01E5DD082FF8
:1004B00033DE002369F4812F05DE80E035DE812FF5
:1004C0008F5F28DE43DE88834BDE898325DE02C012
:1004D00018821982802FDF91CF911F910F9108957B
:1004E0001F93CADD182F882311F016DE02C08EEF8D
:1004F0001BDE80E395E70197F1F7812F1F910895A7
:100500001F93182FEDDF812FB7DD182F882311F0EF
:1005100003DE09C086EE08DE83E006DEFDDD80E353
:1005200095E70197F1F7812F1F9108950F931F937E
:10053000CF93DF93182FEB019FDD082FEDDD002314
:1005400079F4812FBFDD85EEEFDD812F8F5FBADD7E
:10055000FDDD8883FBDD898303DE8A83DDDD01C069
:100560001882802FDF91CF911F910F910895FC0188
:10057000708160E0882777FD8095982F2181620F38
:10058000711D811D911D6C7F2DE730E040E050E032
:1005900039D2BC0188279927262F2650273B08F0FF
:1005A0002258822F0895282FFB016AE04AD2805DED
:1005B0008083822F46D2905D91830895FC01DB01F8
:1005C000408147FD03C020E030E003C0419520E8B2
:1005D00030E0818190E0807C90708038910549F016
:1005E000803C910549F08034910541F4275E3F4FEE
:1005F00005C02E5C3F4F02C0255B3F4F4C931196C8
:100600002C930895DC01FB018C916AE01AD2805D85
:1006100081838C9116D2905D928311968C91119763
:1006200090E08F7790708931910579F08A3191054A
:100630001CF4892B41F013C08233910541F08B34B7
:10064000910569F408C080E30BC082E305C085E32F
:10065000838380E306C087E3838385E302C085E26A
:100660008383848311968C9180788083803811F401
:100670008DE201C080E280830895DF93CF9300D0A4
:100680000F92CDB7DEB71B82982F9F70AFEEB3E00D
:10069000FD01E90FF11D90819A8382958F70A80F5B
:1006A000B11D8C918983CE010196BEDE0F900F9013
:1006B0000F90CF91DF910895DF92EF92FF920F9309
:1006C0001F93DF93CF9300D0CDB7DEB77C01D62E3A
:1006D000042F4DDF182F80910404882391F0812F7F
:1006E000BE016F5F7F4F5FDF85E28FDE88E48DDEC6
:1006F00080E091E099DE898188DE8A8186DE9FDE56
:1007000010C0002311F00FEF1FEF82E07EDE83E0C8
:100710007CDE8D2D7ADE812F78DE802F76DE83E001
:1007200074DEF7011082118212820F900F90CF9128
:10073000DF911F910F91FF90EF90DF900895982F18
:1007400080910404882351F0992319F08BE091E003
:1007500002C086E291E068DE72DE0895992311F00E
:100760008FEF01C08EEF51DE08951F93182F8091F7
:100770000404882339F08AE391E056DE812F7DDF7F
:100780005EDE08C082E041DE81E03FDE812F3DDE9B
:1007900083E03BDE1F910895BF92CF92DF92EF92EC
:1007A000FF920F931F93DF93CF93CDB7DEB72797B9
:1007B0000FB6F894DEBF0FBECDBFB82E7B01C42E9E
:1007C000D22ECB018E010F5F1F4FB801F7DE809153
:1007D0000404882301F1C801BE016D5F7F4F12DF61
:1007E00084E513DE87EA11DE84E591E01DDE8B2DC2
:1007F000805D0BDE8EE591E017DE8B8106DE8C815D
:1008000004DE8D8102DE8EE200DE8E81FEDD8F81D0
:10081000FCDD15DE13C0DD2021F08FEF89838A8394
:1008200001C0000082E0F1DD83E0EFDD8C2DEDDD25
:100830008981EBDD8A81E9DD83E0E7DDF701108264
:10084000118227960FB6F894DEBF0FBECDBFCF91B1
:10085000DF911F910F91FF90EF90DF90CF90BF90AD
:10086000089580910404882321F082E691E0F6DD6A
:10087000089580E0CADD089580910404882341F042
:1008800086E791E0EBDD87EA91E0E8DDD8DD0895C9
:10089000000008951F93F0DB182F3EDC812F1F917D
:1008A00008951F9380910404882319F089ED91E045
:1008B000D5DD10E0812FEEDF882311F4812F55DF85
:1008C0001E5F1E3FB9F780910404882319F081E070
:1008D00092E0C4DD1F91089580E9CFDD982F8091CB
:1008E0000404882341F0992319F083E292E002C0C6
:1008F00082E492E0B3DD82E9C0DD982F80910404A8
:10090000882341F0992319F087E592E002C086E739
:1009100092E0A4DD84E9B1DD982F8091040488235E
:1009200041F0992319F08BE892E002C08AEA92E044
:1009300095DD86E9A2DD982F80910404882341F09B
:10094000992319F08FEB92E002C08EED92E086DDE4
:1009500088E993DD982F80910404882341F099233E
:1009600019F083EF92E002C082E193E077DD8AE93B
:1009700084DD982F80910404882341F0992319F095
:1009800087E293E002C086E493E068DD8CE975DDE0
:10099000982F80910404882341F0992319F08BE566
:1009A00093E002C08AE793E059DD8EE966DD982F77
:1009B00080910404882341F0992319F08FE893E093
:1009C00002C08EEA93E04ADD80E89ADD982F80919C
:1009D0000404882349F0992321F083EC93E03EDD61
:1009E00008958EED93E03ADD089580910404882304
:1009F00019F010920404089581E0809304043CDF10
:100A00006BDF0895629FD001739FF001829FE00D1C
:100A1000F11D649FE00DF11D929FF00D839FF00D7D
:100A2000749FF00D659FF00D9927729FB00DE11D29
:100A3000F91F639FB00DE11DF91FBD01CF01112406
:100A40000895991B79E004C0991F961708F0961B2A
:0E0A5000881F7A95C9F780950895F894FFCF16
:100A5E002053656E736F72203A20002053656E73BB
:100A6E006F72206E6F7420636F6E6E656374656453
:100A7E002021212120002053656E736F7220636F39
:100A8E006E6E65637465642E20002053656E736F01
:100A9E007220666F756E6420617420616464726585
:100AAE0073732000432053656E736F722000203ADB
:100ABE00200020556E6B6E6F776E20636F6D6D61CB
:100ACE006E6420212000202F3D3D2057656C636F02
:100ADE006D6520696E207468652049324320627509
:100AEE00732074657374657220736F6674776172A8
:100AFE0065203D3D5C2000205C3D3D204D41324552
:100B0E004E20323031322D32303133202048726453
:100B1E002076312E3362202D205366742076312EAE
:100B2E00322E3130203D3D2F00202D2D2D204265BF
:100B3E0067696E6E696E67206F662073656E736F80
:100B4E007220646574656374696F6E202D2D2D207F
:100B5E0000202D2D2D20456E64206F662073656E4E
:100B6E00736F7220646574656374696F6E202D2DCA
:100B7E002D2000445337353035206E3120636F6E93
:100B8E006E656374696F6E206572726F72202121BB
:100B9E002100445337353035206E3120636F6E6E31
:100BAE0065637465642E00445337353035206E32DC
:100BBE0020636F6E6E656374696F6E206572726FFF
:100BCE00722021212100445337353035206E3220DA
:100BDE00636F6E6E65637465642E004453373530F3
:100BEE0035206E3320636F6E6E656374696F6E2091
:100BFE006572726F722021212100445337353035D2
:100C0E00206E3320636F6E6E65637465642E0044D0
:100C1E005337353035206E3420636F6E6E656374D6
:100C2E00696F6E206572726F72202121210044530C
:100C3E0037353035206E3420636F6E6E65637465A4
:100C4E00642E00445337353035206E3520636F6E79
:100C5E006E656374696F6E206572726F72202121EA
:100C6E002100445337353035206E3520636F6E6E5C
:100C7E0065637465642E00445337353035206E3607
:100C8E0020636F6E6E656374696F6E206572726F2E
:100C9E00722021212100445337353035206E362005
:100CAE00636F6E6E65637465642E00445337353022
:100CBE0035206E3720636F6E6E656374696F6E20BC
:100CCE006572726F72202121210044533735303501
:100CDE00206E3720636F6E6E65637465642E0044FC
:100CEE005337353035206E3820636F6E6E65637402
:100CFE00696F6E206572726F72202121210044533C
:100D0E0037353035206E3820636F6E6E65637465CF
:100D1E00642E00534854323120636F6E6E656374D7
:100D2E00696F6E206572726F722021212100534807
:100D3E0054323120636F6E6E65637465642E0030BD
:100D4E003132333435363738394142434445460023
:00000001FF
