:1000000019C033C032C031C030C02FC02EC02DC087
:100010002CC02BC02AC029C028C027C026C025C09C
:1000200024C023C0B3C021C020C01FC01EC01DC03B
:100030001CC01BC011241FBECFEFD4E0DEBFCDBF5C
:1000400013E0A0E0B1E0EAE7F9E002C005900D920C
:10005000AE3FB107D9F714E0AEEFB3E001C01D9297
:10006000A630B107E1F76CD186C4CACF1092B900AF
:1000700080E28093B8000895982F84EA8093BC00B2
:100080008091BC0087FFFCCF8091B900887F8830C9
:1000900021F0803111F081E008959093BB0084E855
:1000A0008093BC008091BC0087FFFCCF9091B90089
:1000B000987F983111F480E0089580E0903409F041
:1000C00081E00895982F44EA34E824E94093BC0085
:1000D0008091BC0087FFFCCF8091B900887F883079
:1000E00011F0803199F79093BB003093BC00809160
:1000F000BC0087FFFCCF8091B900887F803211F06F
:10010000883539F42093BC008091BC0084FDFCCF7D
:10011000DDCF0895B1DF089584E98093BC0080911C
:10012000BC0084FDFCCF08958093BB0084E88093DD
:10013000BC008091BC0087FFFCCF8091B90090E0AB
:10014000887F883209F091E0892F089584EC8093AC
:10015000BC008091BC0087FFFCCF8091BB0008955C
:1001600084E88093BC008091BC0087FFFCCF809125
:10017000BB000895F894209A219A289877DF83E3AA
:1001800090E0F3D02CD1789405D308951F920F926C
:100190000FB60F9211242F933F934F935F936F935A
:1001A0007F938F939F93AF93BF93EF93FF93809130
:1001B000C6008093FE03813609F498C0823610F59C
:1001C000853309F467C0863380F4823309F447C06D
:1001D000833320F4813309F0A1C039C0833309F49B
:1001E00049C0843309F09AC04DC0873309F462C016
:1001F000873308F457C0883309F464C0893309F0A1
:100200008DC068C0863609F47BC0873668F48336B3
:1002100009F470C0833608F46BC0843609F46CC0EE
:10022000853609F07BC06AC0893609F46FC08A360A
:1002300038F4873609F466C0883609F06FC064C0A8
:100240008A3609F469C0883709F068C04DC080E972
:1002500060E074E0E3D08093050481E007C082E9A8
:1002600060E074E0DBD08093050482E060E074E03D
:1002700035D255C084E960E074E0D0D080930504A5
:1002800083E0F4CF86E960E074E0C8D08093050491
:1002900084E0ECCF88E960E074E0C0D0809305048E
:1002A00085E0E4CF8AE960E074E0B8D0809305048B
:1002B00086E0DCCF8CE960E074E0B0D08093050488
:1002C00087E0D4CF8EE960E074E0A8D08093050485
:1002D00088E0CCCF80E862E074E0E6D0809305044B
:1002E00082E094E0A7D11BC00ED319C080E90FC0F3
:1002F00082E90DC084E90BC086E909C088E907C01E
:100300008AE905C08CE903C08EE901C080E850D2BB
:1003100080930504BCD103C052D201C030D2FF91FA
:10032000EF91BF91AF919F918F917F916F915F916D
:100330004F913F912F910F900FBE0F901F901895E6
:1003400019DF58D228EC30E0289A80ED97E0F901C7
:100350003197F1F70197D9F7289880ED97E0F901E7
:100360003197F1F70197D9F7EFCF85E38093C40078
:10037000E1ECF0E0808188618083E2ECF0E0808154
:10038000866080830895982F8091C00085FFFCCF00
:100390009093C60008958091C00087FFFCCF8091A4
:1003A000C6000895FC0191918091C00085FFFCCFAB
:1003B0009093C6009923B9F708958091C00085FFF6
:1003C000FCCF8DE08093C6008091C00085FFFCCFFC
:1003D0008AE08093C6000895E5DFEFDF0895E1EC41
:1003E000F0E08081806880830895E1ECF0E0808116
:1003F0008F77808308951F933FDE182F882311F095
:100400008BDE09C081E090DE80E28EDE85DE80E357
:1004100095E70197F1F7812F1F9108950F931F938F
:10042000CF93DF93182FEB0127DE082F75DE002313
:1004300069F4812F47DE80E077DE812F8F5F6ADEEF
:1004400085DE88838DDE898367DE02C0188219828B
:10045000802FDF91CF911F910F9108951F930CDE94
:10046000182F882311F058DE02C08EEF5DDE80E386
:1004700095E70197F1F7812F1F9108951F93182F8A
:10048000EDDF812FF9DD182F882311F045DE09C03B
:1004900086EE4ADE83E048DE3FDE80E395E70197A3
:1004A000F1F7812F1F9108950F931F93CF93DF933F
:1004B000182FEB01E1DD082F2FDE002379F4812FC7
:1004C00001DE85EE31DE812F8F5FFCDD3FDE88832C
:1004D0003DDE898345DE8A831FDE01C01882802FBE
:1004E000DF91CF911F910F910895FC01708160E021
:1004F000882777FD8095982F2181620F711D811DBE
:10050000911D6C7F2DE730E040E050E009D2BC0146
:1005100088279927262F2650273B08F02258822F1C
:100520000895282FFB016AE01AD2805D8083822F14
:1005300016D2905D91830895FC01DB01408147FD57
:1005400003C020E030E003C0419520E830E0818125
:1005500090E0807C90708038910549F0803C910556
:1005600049F08034910541F4275E3F4F05C02E5C71
:100570003F4F02C0255B3F4F4C9311962C9308953B
:10058000DC01FB018C916AE0EAD1805D81838C9172
:10059000E6D1905D928311968C91119790E08F77C0
:1005A00090708931910579F08A3191051CF4892B7D
:1005B00041F013C08233910541F08B34910569F409
:1005C00008C080E30BC082E305C085E3838380E33A
:1005D00006C087E3838385E302C085E28383848347
:1005E00011968C9180788083803811F48DE201C05F
:1005F00080E280830895DF93CF9300D00F92CDB730
:10060000DEB71B82982F9F70ADEEB3E0FD01E90FBE
:10061000F11D90819A8382958F70A80FB11D8C91E6
:100620008983CE010196BEDE0F900F900F90CF917F
:10063000DF9108950F931F93DF93CF9300D0CDB731
:10064000DEB78C0152DF982F8091FF03882391F051
:10065000892FBE016F5F7F4F64DF85E294DE88E4FF
:1006600092DE80E091E09EDE89818DDE8A818BDEE4
:10067000A4DE02C0892F87DEF80110821182128267
:100680000F900F90CF91DF911F910F910895982FA8
:100690008091FF03882351F0992319F08BE091E0BA
:1006A00002C086E291E07EDE88DE0895992311F093
:1006B0008FEF01C08EEF67DE08951F93182F809192
:1006C000FF03882339F08AE391E06CDE812F93DF0A
:1006D00074DE02C0812F57DE1F910895DF92EF92E2
:1006E000FF920F931F93DF93CF93CDB7DEB727977A
:1006F0000FB6F894DEBF0FBECDBFD82E8B01CB0155
:100700007E010894E11CF11CB70116DF8091FF0304
:10071000882301F1C701BE016D5F7F4F31DF84E5A2
:1007200032DE87EA30DE84E591E03CDE8D2D805DAF
:100730002ADE8EE591E036DE8B8125DE8C8123DE9C
:100740008D8121DE8EE21FDE8E811DDE8F811BDE1C
:1007500034DE04C0898117DE8A8115DEF80110823B
:10076000118227960FB6F894DEBF0FBECDBFCF9192
:10077000DF911F910F91FF90EF90DF90089580918E
:10078000FF03882321F082E691E026DE089580E0D1
:10079000FADD08958091FF03882341F086E791E018
:1007A0001BDE87EA91E018DE08DE08950000089558
:1007B0001F9362DC182FB0DC812F1F9108951F93C7
:1007C0008091FF03882319F087ED91E005DE10E0AA
:1007D000812FEEDF882311F4812F6FDF1E5F1E3F14
:1007E000B9F78091FF03882319F08FEF91E0F4DDD2
:1007F0001F91089580E9FFDD982F8091FF038823E2
:1008000041F0992319F081E292E002C080E492E085
:10081000E3DD82E9F0DD982F8091FF03882341F02A
:10082000992319F085E592E002C084E792E0D4DDD7
:1008300084E9E1DD982F8091FF03882341F099231B
:1008400019F089E892E002C088EA92E0C5DD86E905
:10085000D2DD982F8091FF03882341F0992319F06E
:100860008DEB92E002C08CED92E0B6DD88E9C3DD4D
:10087000982F8091FF03882341F0992319F081EF8D
:1008800092E002C080E193E0A7DD8AE9B4DD982F11
:100890008091FF03882341F0992319F085E293E0CA
:1008A00002C084E493E098DD8CE9A5DD982F809167
:1008B000FF03882341F0992319F089E593E002C0F2
:1008C00088E793E089DD8EE996DD982F8091FF031C
:1008D000882341F0992319F08DE893E002C08CEA57
:1008E00093E07ADD80E8CADD982F8091FF038823AA
:1008F00049F0992321F081EC93E06EDD08958CEDB1
:1009000093E06ADD08958091FF03882319F0109227
:10091000FF03089581E08093FF033CDF6BDF0895C0
:10092000629FD001739FF001829FE00DF11D649FD3
:10093000E00DF11D929FF00D839FF00D749FF00D5F
:10094000659FF00D9927729FB00DE11DF91F639F00
:10095000B00DE11DF91FBD01CF0111240895991BB0
:1009600079E004C0991F961708F0961B881F7A95A6
:0A097000C9F780950895F894FFCFB1
:10097A002053656E736F72203A20002053656E73A0
:10098A006F72206E6F7420636F6E6E656374656438
:10099A002021212120002053656E736F7220636F1E
:1009AA006E6E65637465642E20002053656E736FE6
:1009BA007220666F756E642061742061646472656A
:1009CA0073732000432053656E736F722000203AC0
:1009DA00200020556E6B6E6F776E20636F6D6D61B0
:1009EA006E6420212000202F3D3D2057656C636FE7
:1009FA006D6520696E2074686520493243206275EE
:100A0A00732074657374657220736F66747761728C
:100A1A0065203D3D5C2000205C3D3D204D41324536
:100A2A004E20323031322D32303133202048726438
:100A3A002076312E33202D205366742076312E32C3
:100A4A002E36203D3D2F00202D2D2D204265676931
:100A5A006E6E696E67206F662073656E736F7220A3
:100A6A00646574656374696F6E202D2D2D200020D6
:100A7A002D2D2D20456E64206F662073656E736F71
:100A8A007220646574656374696F6E202D2D2D2044
:100A9A0000445337353035206E3120636F6E6E65F2
:100AAA006374696F6E206572726F72202121210052
:100ABA00445337353035206E3120636F6E6E65636F
:100ACA007465642E00445337353035206E32206306
:100ADA006F6E6E656374696F6E206572726F7220D5
:100AEA0021212100445337353035206E3220636F7F
:100AFA006E6E65637465642E004453373530352055
:100B0A006E3320636F6E6E656374696F6E206572F3
:100B1A00726F722021212100445337353035206EFF
:100B2A003320636F6E6E65637465642E00445337B9
:100B3A00353035206E3420636F6E6E656374696F6D
:100B4A006E206572726F722021212100445337355D
:100B5A003035206E3420636F6E6E65637465642E63
:100B6A0000445337353035206E3520636F6E6E651D
:100B7A006374696F6E206572726F72202121210081
:100B8A00445337353035206E3520636F6E6E65639A
:100B9A007465642E00445337353035206E36206331
:100BAA006F6E6E656374696F6E206572726F722004
:100BBA0021212100445337353035206E3620636FAA
:100BCA006E6E65637465642E004453373530352084
:100BDA006E3720636F6E6E656374696F6E2065721F
:100BEA00726F722021212100445337353035206E2F
:100BFA003720636F6E6E65637465642E00445337E5
:100C0A00353035206E3820636F6E6E656374696F98
:100C1A006E206572726F722021212100445337358C
:100C2A003035206E3820636F6E6E65637465642E8E
:100C3A0000534854323120636F6E6E656374696F76
:100C4A006E206572726F722021212100534854323E
:100C5A003120636F6E6E65637465642E00303132C5
:0E0C6A0033343536373839414243444546006D
:00000001FF
