:1000000019C033C032C031C030C02FC0A6C52DC00A
:100010002CC02BC02AC02DC528C027C026C025C093
:1000200024C023C03FC221C020C01FC01EC01DC0AD
:100030001CC01BC011241FBECFEFD4E0DEBFCDBF5C
:1000400012E0A0E0B1E0ECE1FAE102C005900D920F
:10005000A031B107D9F712E0A0E1B2E001C01D92D2
:10006000A536B107E1F7ADD2D7CCCACFFC0192E0FB
:1000700020E007C080819827803109F498272F5FFE
:1000800031962617B8F383E18927089580911602E7
:1000900090911502890F90911702890F9091180283
:1000A000890F90911902890F08959F92AF92BF9284
:1000B000CF92DF92EF92FF920F931F93DF93CF9334
:1000C00000D00F92CDB7DEB76C0110E09924939465
:1000D0005E010894A11CB11C8091C1008F778093B0
:1000E000C10090921A02C50161E070E043E050E067
:1000F0002ADC113011F4E4D402C08091C6008230B1
:1001000009F055C080E1D4D4FF2410E082E0E82E4D
:1001100080E89AE196D4D4D4082F9FD490911A0203
:10012000913041F5E02680E1F81619F00031A9F48C
:100130000DC0003179F48A81813041F489831A82BB
:100140008B83F601E10FF11DF0820EC019829A83B4
:100150009B830BC09A831B8203C099839A839B83E2
:10016000F601E10FF11D00831F5FF02E89818823C6
:1001700079F603C085E19CD404C0F02E8B818823DE
:1001800039F680911A02813091F4033081F480E8CD
:100190009AE157D495D4182F60D480911A028130F7
:1001A00031F41E1521F480E183D491E003C085E190
:1001B0007FD490E080911A0211E0882309F48CCF5B
:1001C000992309F489CF8091C10080688093C10090
:1001D0000F900F900F90CF91DF911F910F91FF9093
:1001E000EF90DF90CF90BF90AF909F900895CF9207
:1001F000DF92EF92FF920F931F93CF93DF93D82E4E
:10020000E92EF62E85E0E5E1F2E0DF011D928A9508
:10021000E9F72D2D392FC901FC0120E092E007C03C
:1002200080819827803109F498272F5F31962F1508
:10023000B8F303E10927CC24C394C0921A02C092F8
:10024000140282E035D480E89AE1FBD339D4182F28
:1002500004D480911A02813009F07AC0103109F07B
:100260006DC08091C10080688093C1002D2D3E2D0E
:10027000C901EC0110E011C080911402813079F4C1
:10028000888116D48881803131F4809114028130C4
:1002900031F480E10DD41F5F21961F1568F3809122
:1002A0001402813079F580E103D480911402813009
:1002B00049F583E0FDD380911402813019F58091D6
:1002C000C1008F778093C100802FF2D380911402F8
:1002D0008130E9F480E89AE1B4D3F2D3182FBDD38A
:1002E00080911A02813041F41031B1F080911602F0
:1002F0008F5F8093160210C0809117028F5F8093EA
:1003000017020AC08091C1008F778093C10080914D
:1003100018028F5F80931802809116029091150247
:10032000890F90911702890F90911802890F90916F
:100330001902890F863091F481E01BC0123011F44C
:1003400082E017C0809115028F5F80931502E4CF81
:10035000809119028F5F80931902DECF80911A027B
:10036000882309F46ACF80911402882309F465CFA9
:1003700080E0DF91CF911F910F91FF90EF90DF9080
:10038000CF90089587E690E080D34DD385E0E5E1F6
:10039000F2E0DF011D928A95E9F708951092B90005
:1003A00080E28093B8000895982F84EA8093BC007F
:1003B0008091BC0087FFFCCF8091B900887F883096
:1003C00021F0803111F081E008959093BB0084E822
:1003D0008093BC008091BC0087FFFCCF9091B90056
:1003E000987F983111F480E0089580E0903409F00E
:1003F00081E00895982F44EA34E824E94093BC0052
:100400008091BC0087FFFCCF8091B900887F883045
:1004100011F0803199F79093BB003093BC0080912C
:10042000BC0087FFFCCF8091B900887F803211F03B
:10043000883539F42093BC008091BC0084FDFCCF4A
:10044000DDCF0895B1DF089584E98093BC008091E9
:10045000BC0084FDFCCF08958093BB0084E88093AA
:10046000BC008091BC0087FFFCCF8091B90090E078
:10047000887F883209F091E0892F089584EC809379
:10048000BC008091BC0087FFFCCF8091BB00089529
:1004900084E88093BC008091BC0087FFFCCF8091F2
:1004A000BB0008951F920F920FB60F9211242F9345
:1004B0008F939F93EF93FF9380910401813061F4B8
:1004C00080913402882319F41092140214C08130F0
:1004D00091F4109203010FC08091110290911202C9
:1004E0002091C600FC01E55CFD4F208301969093AE
:1004F000120280931102FF91EF919F918F912F91A2
:100500000F900FBE0F901F901895FF920F931F939F
:10051000162F042FF090040191E0F916D9F480937E
:10052000220240932302609324028091C1008F77BE
:100530008093C1001092340282E292E063E057DEC1
:1005400080932702F09234028091C10080688093EA
:10055000C10005C0ADD2812FABD2802FA9D21F918F
:100560000F91FF900895F894519A589AEBE3F2E0B6
:10057000119282E0E435F807D9F710DF03DF8091AC
:10058000C10080688093C10081E080933402A5D3CC
:1005900080E0C3D38BE192E0B4D38BE192E061E2DF
:1005A00072E040E050E059D49091220280E0209126
:1005B0002102820F911D90935C0280935B027894DC
:1005C00008950F931F93CFDF80E9F5D282E9F3D22C
:1005D00084E9F1D286E9EFD288E9EDD28AE9EBD25B
:1005E0008CE9E9D28EE9E7D280E800D401E01FEF80
:1005F00080910301882339F48BE392E056DD109259
:1006000053020093030180913B02882309F409C23D
:10061000823509F475C1833540F5843409F4DCC0B2
:10062000853480F4813409F489C0823420F4803424
:1006300009F0DBC169C0823409F49AC0833409F03F
:10064000D4C1B0C0873409F415C1883438F4853476
:1006500009F4DCC0863409F0C8C1F2C0803509F461
:1006600023C1813509F0C1C137C1803809F440C0C8
:10067000813878F4803609F457C1813620F4833507
:1006800009F0B3C189C18037B1F0813709F0ADC13C
:1006900026C0813909F499C1823930F4813871F169
:1006A000803909F0A2C18CC1823909F493C1833920
:1006B00009F09BC194C180E86BE172E0ADD388235F
:1006C00029F48BE192E05BD380932C0240912C02C1
:1006D00040935D021092240280E760E007C010930F
:1006E00064021093260281E76FEF4FEF0EDF7EC1A9
:1006F000109320021093580280E8F6CF109357020F
:1007000010932E0281E8F0CF80E96BE172E066D2AF
:10071000882329F0109321021093220205C08BE157
:1007200092E061E272E07AD24091210240931E028F
:10073000609122026093610280E4D8CF82E96BE18C
:1007400072E04CD2882329F01093210210932202E8
:1007500005C08BE192E061E272E060D2409121023B
:1007600040932A02609122026093620281E4BECF2C
:1007700084E96BE172E032D2882329F010932102E0
:100780001093220205C08BE192E061E272E046D252
:1007900040912102409360026091220260936302C3
:1007A00082E4A4CF86E96BE172E018D2882329F0B5
:1007B000109321021093220205C08BE192E061E2C6
:1007C00072E02CD24091210240935E02609122029D
:1007D00060935A0283E48ACF88E96BE172E0FED12C
:1007E000882329F0109321021093220205C08BE187
:1007F00092E061E272E012D24091210240932D0218
:10080000609122026093540284E470CF8AE96BE124
:1008100072E0E4D1882329F0109321021093220280
:1008200005C08BE192E061E272E0F8D140912102D3
:1008300040932502609122026093390285E456CFED
:100840008CE96BE172E0CAD1882329F01093210270
:100850001093220205C08BE192E061E272E0DED1EA
:100860004091210240932802609122026093290264
:1008700086E43CCF8EE96BE172E0B0D1882329F0A9
:10088000109321021093220205C08BE192E061E2F5
:1008900072E0C4D14091210240932B026091220268
:1008A0006093310287E422CF80E037D28BE192E07F
:1008B00028D240915B0250915C028BE192E061E2B0
:1008C00072E0CBD26091210260931F02409122021C
:1008D0004093550280E50ACF81E01FD28BE192E080
:1008E00010D28BE192E061E272E013D360912102B9
:1008F00060932F024091220240933A0281E5F6CEA6
:1009000082E00BD28BE192E0FCD18BE192E061E2DC
:1009100072E0FFD260912102609336024091220280
:100920004093330282E5E2CE81E0F7D18BE192E0A1
:10093000E8D18BE192E061E272E0EBD2809121029A
:1009400080932F028091220280933A0282E0E5D1C7
:100950008BE192E0D6D18BE192E061E272E0D9D2F4
:10096000909121029093360280912202809333026B
:1009700040912F0250E0BA01690F711D759567957E
:100980006093320280913A02480F511D5595479568
:100990004093350280E6AACE83E0BFD18BE192E09E
:1009A000B0D18BE192E061E272E0B3D260912102BA
:1009B00060935F02409122024093380283E596CE15
:1009C0000093010180E960EA0EC01092010181E903
:1009D00061EA09C00093020182E962EA04C0109250
:1009E000020183E963EA40E081CE00001092370201
:1009F00090E007C0E92FF0E0E55CFD4F8181808346
:100A00009F5F9931B8F3909337021092530280910F
:100A10001102909112020197909312028093110299
:100A2000E7CD0000E5CDE1E8F0E0808188608083DB
:100A3000EFE6F0E080818260808381E080931A029B
:100A40000895F89490938900809388007894E1E861
:100A5000F0E08081856080830895E1E8F0E08081A6
:100A60008D7F8083F8941092850010928400789492
:100A700008951F920F920FB60F92112410921A022E
:100A80000F900FBE0F901F9018959093C500809304
:100A9000C40082E08093C000E1ECF0E080818861D6
:100AA000808386E08093C20081E0809314020895E1
:100AB000982F8091C00085FFFCCF9093C6000895C9
:100AC0008091C00087FD04C080911A028130C1F37B
:100AD0008091C00087FD02C080E008958091C6002B
:100AE0000895FC0190E012C08091C00087FD04C011
:100AF00080911A028130C1F38091C00087FD02C04D
:100B000080E002C08091C60081939F5F961760F3DA
:100B100008959C01DC010D900020E9F71197A81BB6
:100B2000B90B90E00AC0E20FF31F40818091C00032
:100B300085FFFCCF4093C6009F5FE92FF0E0EA17E6
:100B4000FB0788F30895F894A895E0E6F0E088E1C3
:100B5000808381E68083789408951F920F920FB668
:100B60000F9211248F939F93F89480910501909197
:100B70000601892B89F0A89588E18093600081E6C1
:100B800080936000809105019091060101979093F8
:100B900006018093050107C0A89588E18093600055
:100BA00088E08093600078949F918F910F900FBEA2
:100BB0000F901F9018951F93F7DB182F882311F0C3
:100BC00043DC09C081E048DC80E246DC3DDC80E3B8
:100BD00095E70197F1F7812F1F9108950F931F93C8
:100BE000CF93DF93182FEB01DFDB082F2DDC0023E1
:100BF00069F4812FFFDB80E02FDC812F8F5F22DC07
:100C00003DDC888345DC89831FDC02C018821982A1
:100C1000802FDF91CF911F910F910895FC01DB018F
:100C2000408147FD03C020E030E003C0419520E84B
:100C300030E0818190E0807C90708038910549F0AF
:100C4000803C910549F08034910541F4275E3F4F87
:100C500005C02E5C3F4F02C0255B3F4F4C93119661
:100C60002C930895DC01FB018C916AE092D6805DA3
:100C700081838C918ED6905D928311968C91119781
:100C800090E08F7790708931910579F08A319105E4
:100C90001CF4892B41F013C08233910541F08B3451
:100CA000910569F408C080E30BC082E305C085E3C9
:100CB000838380E306C087E3838385E302C085E204
:100CC0008383848311968C9180788083803811F49B
:100CD0008DE201C080E280830895ECE7F0E080813E
:100CE00080628083EAE7F0E08081876880830895EE
:100CF000EAE7F0E080818061808380818F7B808360
:100D00000895FC0180917A0084FFFCCF80917800E7
:100D100080838091790081830895882339F48091BC
:100D20007E00816080937E0080E208C0813049F4BB
:100D300080917E00826080937E0081E280937C00BF
:100D400013C0823039F480917E00846080937E00ED
:100D500082E2F4CF833039F480917E008860809302
:100D60007E0083E2EBCF000080917A008064809364
:100D70007A00809164008E7F809364000895FC0166
:100D8000708160E0882777FD8095982F2181620F20
:100D9000711D811D911D6C7F2DE730E040E050E01A
:100DA000D9D5BC0188279927262F2650273B08F044
:100DB0002258822F0895282FFB016AE0EAD5805D32
:100DC0008083822FE6D5905D918308951F93ECDA9E
:100DD000182F882311F038DB02C08EEF3DDB80E353
:100DE00095E70197F1F7812F1F9108951F93182F11
:100DF000EDDF812FD9DA182F882311F025DB09C008
:100E000086EE2ADB83E028DB1FDB80E395E7019792
:100E1000F1F7812F1F9108950F931F93CF93DF93C5
:100E2000182FEB01C1DA082F0FDB002379F4812F93
:100E3000E1DA85EE11DB812F8F5FDCDA1FDB88833F
:100E40001DDB898325DB8A83FFDA01C01882802FAE
:100E5000DF91CF911F910F910895CF92DF92EF9282
:100E6000FF920F931F93CF93DF93FC01EB016A0175
:100E700080816181882329F4662381F41882198294
:100E80003FC0262F30E0220F331F220F331F8295E1
:100E9000869586958370280F311D06C0262F30E079
:100EA000220F331F220F331FB901882777FD80954A
:100EB000982F02D328E03CEA44E550E408D27B01B5
:100EC0008C01B601882777FD8095982FF5D29B017C
:100ED000AC01C801B701A9D149D39B0177FD06C078
:100EE0006883872F992787FD9A9509C088279927B6
:100EF000821B930B8883892F990F990B80588983C4
:100F0000DF91CF911F910F91FF90EF90DF90CF90E5
:100F10000895CF93DF93FC01EB014081618144236D
:100F200069F0262F30E0220F331F220F331F429526
:100F3000469546954370240F311D06C0262F30E09C
:100F4000220F331F220F331FB901882777FD8095A9
:100F5000982FB2D22EE03EEB48E85FE3B8D12CEDFB
:100F600036EB40EA53E461D101D39B0177FD06C023
:100F70006883872F992787FD9A9509C08827992725
:100F8000821B930B8883892F990F990B8058898333
:100F9000DF91CF910895A0E0B0E0E0EDF7E005C566
:100FA000DC012B01FA019C91923008F439C1EB016C
:100FB0008881823008F433C1943069F4843009F0B8
:100FC0002FC111969C9111978981981709F428C116
:100FD000A7E0B1E025C1843009F421C18230A9F431
:100FE000923009F01DC19A01AD0188E0EA01099033
:100FF000AE01E90109929E018150C1F7E2018981A8
:1010000011969C918923818308C1923009F407C10C
:1010100012962D903C901397EB018A819B81149638
:10102000AD90BD90CD90DC901797EC80FD800E8147
:101030001F819101281B390BB90137FF04C06627B6
:101040007727621B730B603271050CF061C01216BA
:1010500013066CF537014801062E04C09694879458
:10106000779467940A94D2F721E030E040E050E0B2
:1010700004C0220F331F441F551F6A95D2F7215019
:101080003040404050402E213F2140235123211524
:1010900031054105510521F021E030E040E050E00C
:1010A00079018A01E628F728082919293CC0232B51
:1010B000D1F1260E371E35014601062E04C0969446
:1010C0008794779467940A94D2F721E030E040E067
:1010D00050E004C0220F331F441F551F6A95D2F7FA
:1010E00021503040404050402A213B214C215D217D
:1010F000211531054105510521F021E030E040E0A6
:1011000050E059016A01A628B728C828D9280BC081
:10111000821593052CF01C01AA24BB24650103C091
:10112000EE24FF24870111969C91D20111968C9197
:10113000981709F445C0992339F0A80197012A1995
:101140003B094C095D0906C0A60195012E193F090E
:10115000400B510B57FD08C0118233822282248339
:101160003583468357831DC081E081833382228289
:1011700088279927DC01821B930BA40BB50B848372
:101180009583A683B7830DC0220F331F441F551FBD
:101190002483358346835783828193810197938388
:1011A00082832481358146815781DA01C901019703
:1011B000A109B1098F5F9F4FAF4FBF4328F30BC009
:1011C000918333822282EA0CFB1C0C1D1D1DE482DC
:1011D000F5820683178383E08083248135814681ED
:1011E000578157FF1AC0C901AA2797FDA095BA2FAA
:1011F00081709070A070B07056954795379527957F
:10120000822B932BA42BB52B84839583A683B78342
:1012100082819381019693838283DF0101C0D20191
:10122000CD01CDB7DEB7E2E1DCC3A0E2B0E0EAE198
:10123000F9E0C7C369837A838B839C832D833E83C4
:101240004F835887E9E0EE2EF12CEC0EFD1ECE0107
:101250000196B70100D38E010F5E1F4FCE01059698
:10126000B801F9D28A8991E089278A8BC701B80130
:10127000AE01475E5F4F8FDE19D2A096E6E0BDC398
:10128000A0E2B0E0E5E4F9E09CC369837A838B8354
:101290009C832D833E834F835887F9E0EF2EF12CFA
:1012A000EC0EFD1ECE010196B701D5D28E010F5E68
:1012B0001F4FCE010596B801CED2C701B801AE01CD
:1012C000475E5F4F68DEF2D1A096E6E096C3A0E2EB
:1012D000B0E0ECE6F9E069C369837A838B839C8391
:1012E0002D833E834F835887CE010196BE01675FF1
:1012F0007F4FB1D2CE010596BE016F5E7F4FABD25C
:101300009985923088F089898230C8F0943019F438
:10131000823051F404C0843029F4923081F487E0A3
:1013200091E0C6C0923049F420E09A858A899813EA
:1013300021E02A87CE010996BBC0823049F420E023
:101340009A858A89981321E02A8BCE014196B0C0F4
:101350002D843E844F8458886D887E888F88988C31
:10136000EE24FF248701AA24BB24650140E050E05D
:1013700060E070E0E0E0F0E0C10181709070892BE6
:10138000E9F0E60CF71C081D191D9A01AB012A0DA6
:101390003B1D4C1D5D1D80E090E0A0E0B0E0E61438
:1013A000F7040805190520F481E090E0A0E0B0E022
:1013B000BA01A901480F591F6A1F7B1FAA0CBB1C49
:1013C000CC1CDD1C97FE08C081E090E0A0E0B0E0FE
:1013D000A82AB92ACA2ADB2A3196E032F10549F057
:1013E000660C771C881C991C569447943794279454
:1013F000C3CFFA85EA892B893C898B859C85280F88
:10140000391F2E5F3F4F17C0CA0181709070892B22
:1014100061F016950795F794E79480E090E0A0E0DE
:10142000B0E8E82AF92A0A2B1B2B76956795579581
:1014300047952F5F3F4F77FDE7CF0CC0440F551FF7
:10144000661F771F17FD4160EE0CFF1C001F111F68
:1014500021503040403090E0590790E0690790E417
:10146000790760F32B8F3C8FDB01CA018F77907077
:10147000A070B07080349105A105B10561F447FDFD
:101480000AC0E114F1040105110529F0405C5F4F29
:101490006F4F7F4F40781A8EFE1711F081E08A8FD0
:1014A0004D8F5E8F6F8F78A383E0898FCE01499631
:1014B000FDD0A096E2E195C2A8E0B0E0E1E6FAE056
:1014C0007DC29B01AC0183E08983DA01C9018827D1
:1014D000B7FD83959927AA27BB27B82E211531057B
:1014E0004105510519F482E0898339C08823A9F0A8
:1014F000203080E0380780E0480780E8580729F46A
:1015000060E070E080E09FEC2EC0EE24FF248701B5
:10151000E21AF30A040B150B02C079018A018EE16D
:10152000C82ED12CDC82CB82ED82FE820F831887FD
:10153000C801B7016CD001971816190684F4082E5B
:1015400004C0EE0CFF1C001F111F0A94D2F7ED829D
:10155000FE820F831887C81AD90ADC82CB82BA822E
:10156000CE010196A3D02896E9E044C2ACE0B0E0F9
:10157000EBEBFAE02AC269837A838B839C83CE01EA
:101580000196BE016B5F7F4F66D18D81823061F124
:10159000823050F1843021F48E81882351F12EC0A5
:1015A0002F81388537FD20C06E812F3131051CF029
:1015B0006623F9F023C08EE190E0821B930B29850E
:1015C0003A854B855C8504C0569547953795279598
:1015D0008A95D2F76623B1F05095409530952195C4
:1015E0003F4F4F4F5F4F0EC020E030E040E050E0F3
:1015F00009C02FEF3FEF4FEF5FE704C020E030E07E
:1016000040E050E8B901CA012C96E2E0FAC1EF923D
:10161000FF920F931F937B018C0180E0E81680E01E
:10162000F80681E0080780E0180788F48FEFE816D5
:10163000F1040105110531F028F088E090E0A0E008
:10164000B0E017C080E090E0A0E0B0E012C080E021
:10165000E81680E0F80680E0080781E0180728F027
:1016600088E190E0A0E0B0E004C080E190E0A0E07C
:10167000B0E020E230E040E050E0281B390B4A0B9C
:101680005B0B04C016950795F794E7948A95D2F7FB
:10169000F701E15FFE4F8081281B310941095109A3
:1016A000C9011F910F91FF90EF900895DF92EF9283
:1016B000FF920F931F93FC01E480F5800681178150
:1016C000D1808081823048F480E090E0A0E1B0E0F9
:1016D000E82AF92A0A2B1B2BA5C0843009F49FC0E5
:1016E000823021F4EE24FF24870105C0E114F104C7
:1016F0000105110519F4E0E0F0E096C06281738104
:101700009FEF623879070CF05BC022E83FEF261BA1
:10171000370B2A3131052CF020E030E040E050E07A
:101720002AC0B801A701022E04C076956795579587
:1017300047950A94D2F781E090E0A0E0B0E004C0C1
:10174000880F991FAA1FBB1F2A95D2F70197A109DD
:10175000B1098E219F21A023B1230097A105B105D6
:1017600021F081E090E0A0E0B0E09A01AB01282BED
:10177000392B4A2B5B2BDA01C9018F779070A0704F
:10178000B07080349105A105B10539F427FF09C077
:10179000205C3F4F4F4F5F4F04C0215C3F4F4F4F86
:1017A0005F4FE0E0F0E02030A0E03A07A0E04A0719
:1017B000A0E45A0710F0E1E0F0E079018A0127C0C7
:1017C0006038710564F5FB01E158FF4FD801C7018E
:1017D0008F779070A070B07080349105A105B1052D
:1017E00039F4E7FE0DC080E490E0A0E0B0E004C072
:1017F0008FE390E0A0E0B0E0E80EF91E0A1F1B1F87
:1018000017FF05C016950795F794E794319687E082
:1018100016950795F794E7948A95D1F705C0EE24BD
:10182000FF248701EFEFF0E06E2F6795662767953D
:10183000902F9F77D794DD24D7948E2F8695492FAC
:10184000462B582F5D29B701CA011F910F91FF90B8
:10185000EF90DF900895FC01DB01408151812281EE
:10186000622F6F7770E0221F2227221F9381892F1A
:10187000880F822B282F30E0991F9927991F1196E6
:101880009C93119721153105A9F541155105610565
:10189000710511F482E037C082E89FEF13969C93A4
:1018A0008E9312979A01AB0167E0220F331F441FFA
:1018B000551F6A95D1F783E08C930DC0220F331F1B
:1018C000441F551F12968D919C9113970197139663
:1018D0009C938E931297203080E0380780E0480771
:1018E00080E4580758F314962D933D934D935C93E1
:1018F000179708952F3F310579F44115510561057A
:10190000710519F484E08C93089564FF03C081E0AD
:101910008C9312C01C9210C02F57304013963C93EA
:101920002E93129783E08C9387E0440F551F661F18
:10193000771F8A95D1F7706414964D935D936D93DC
:101940007C9317970895DC0101C06D93415050407E
:10195000E0F70895629FD001739FF001829FE00D30
:10196000F11D649FE00DF11D929FF00D839FF00D1E
:10197000749FF00D659FF00D9927729FB00DE11DCA
:10198000F91F639FB00DE11DF91FBD01CF011124A7
:101990000895991B79E004C0991F961708F0961BCB
:1019A000881F7A95C9F7809508952F923F924F929C
:1019B0005F926F927F928F929F92AF92BF92CF92DF
:1019C000DF92EF92FF920F931F93CF93DF93CDB7E8
:1019D000DEB7CA1BDB0B0FB6F894DEBF0FBECDBF60
:1019E00009942A88398848885F846E847D848C8431
:1019F0009B84AA84B984C884DF80EE80FD800C813A
:101A00001B81AA81B981CE0FD11D0FB6F894DEBF1C
:0C1A10000FBECDBFED010895F894FFCF8C
:101A1C0001010101010600000000000000000000AF
:101A2C000102020303030304040404040404040574
:101A3C000505050505050505050505050505050649
:101A4C00060606060606060606060606060606062A
:101A5C000606060606060606060606060606060719
:101A6C0007070707070707070707070707070707FA
:101A7C0007070707070707070707070707070707EA
:101A8C0007070707070707070707070707070707DA
:101A9C0007070707070707070707070707070708C9
:101AAC0008080808080808080808080808080808AA
:101ABC00080808080808080808080808080808089A
:101ACC00080808080808080808080808080808088A
:101ADC00080808080808080808080808080808087A
:101AEC00080808080808080808080808080808086A
:101AFC00080808080808080808080808080808085A
:101B0C000808080808080808080808080808080849
:101B1C000808080808080808080808080808080041
:00000001FF
